:105FC60053B1FB43B20412551F1257A5123FD41208
:105FD60047E71249C91256D612592A12534080E988
:10149100514474656368B0E6C8A8CBF9D3D000C8DD
:1014A100ABB6AFB5E7D7D3D7DBBACFB2E2CAD4B3C5
:1014B100CCD0F200C8ABB6AFB5E7D7D300D7DBBA13
:1014C100CFB2E2CAD4B3CCD0F200332E32272049B6
:1014D1004C4939343831203332305834383000787F
:1014E10069616F46656E6740514474656368203277
:1014F1003031342D30322D323500B2E2CAD4313A96
:10150100B4BFC9ABCCEEB3E4B2E2CAD40057686948
:10151100746500426C61636B0052656400477265DB
:10152100656E00426C756500B2E2CAD4323A475525
:1015310049BED8D0CECCEEB3E4B2E2CAD400B2E216
:10154100CAD4333A475549BBADD4B2CCEEB3E4B2B9
:10155100E2CAD400B2E2CAD4343AD3A2CEC4CFD4C0
:10156100CABEB2E2CAD400365831323A616263640B
:1015710065666768696A6B6C6D6E6F7071727374A2
:1015810075767778797A00365831323A4142434458
:1015910045464748494A4B4C4D4E4F503031323306
:1015A10034353637383900365831323A7E214023C6
:1015B10024255E262A28295F2B7B7D3A3C3E3F2F3E
:1015C1007C2D2B2E00385831363A61626364656692
:1015D1006768696A6B6C6D6E6F7071727374757622
:1015E1007700385831363A414243444546474849E5
:1015F1004A4B4C4D4E303132333435363700385842
:1016010031363A7E21402324255E262A28295F2B64
:101611007B7D3A3C3E3F2F7C00B2E2CAD4353AD6BC
:10162100D0CEC4CFD4CABEB2E2CAD400313658310A
:10163100363AC8ABB6AFB5E7D7D3BCBCCAF5D3D041
:10164100CFDEB9ABCBBEBBB6D3ADC4FA0031365891
:1016510031363A57656C636F6D65C8ABB6AFB5E7A8
:10166100D7D30032345832343AC9EEDBDACAD0D695
:10167100D0CEC4B2E2CAD40033325833323AD7D6CC
:10168100CCE5B2E2CAD400B2E2CAD4363ACDBCC685
:10169100ACCFD4CABEB2E2CAD400515100B2E2CA40
:1016A100D4373A546F756368B2E2CAD400525354C6
:1016B10000FFFFFFFFFFFFFFFFFFFFFFFFFFFFFF38
:1016C100FFFFFFFFFFFFFFFFFFFFFFFFFFFFFFBE6A
:1016D100F7FFFFDEFF38C6928C8E6B6E6B107C9627
:1016E100AD3CE7FFFFFFFFFFFFFFFFFFFFFFFFFF36
:1016F100FFFFFFFFFFFFFFFFFFFFFFFFFFFFFFFFF9
:10170100FFFFFFFFFFFFFFFFFFFFFFFFFFFFFFFFE8
:10171100FFFFFFFFFFFFFFFFFFFFFFFFFFFFFF5D7A
:10172100EF159D4F636C420A3288294619251945E8
:1017310021E8318E6B38C6FFFFFFFFFFFFFFFFFF80
:10174100FFFFFFFFFFFFFFFFFFFFFFFFFFFFFFFFA8
:10175100FFFFFFFFFFFFFFFFFFFFFFFFFFFFFFFF98
:10176100FFFFFFFFFFFFFFFFFFFFFFFFFF36A5109A
:1017710053104B51530F4B6C3AE93167212519E452
:1017810010A30862008308CB529AD6FFFFFFFFFF28
:10179100FFFFFFFFFFFFFFFFFFFFFFFFFFFFFFFF58
:1017A100FFFFFFFFFFFFFFFFFFFFFFFFFFFFFFFF48
:1017B100FFFFFFFFFFFFFFFFFF3CE77063B363B86D
:1017C1007CF56311434D32EA298821261905190553
:1017D1001904110411E4108300A308728CFFFFFFA8
:1017E100FFFFFFFFFFFFFFFFFFFFFFFFFFFFFFFF08
:1017F100FFFFFFFFFFFFFFFFFFFFFFFFFFFFFFFFF8
:10180100FFFFFFFFFFFFFFDBDE4B3AF042356C5479
:101811004BB1322E2AEB21A92167190519041104B4
:10182100110411041104110519E4104200AF73FFF2
:10183100FFFFFFFFFFFFFFFFFFFFFFFFFFFFFFFFB7
:10184100FFFFFFFFFFFFFFFFFFFFFFFFFFFFFFFFA7
:10185100FFFFFFFFFF5DEF09324C32104B8F324F1C
:101861002A2E2ACC1989198921471905190411042D
:1018710011C410C410041104110411E41042003108
:1018810084FFFFFFFFFFFFFFFFFFFFFFFFFFFFFFE2
:10189100FFFFFFFFFFFFFFFFFFFFFFFFFFFFFFFF57
:1018A100FFFFFFFFFFEC5247194C320B2AEC21ECF2
:1018B100210C22915BEE4A061126190419E410E469
:1018C10010A7296621A308051904110411E4108247
:1018D10000F7BDFFFFFFFFFFFFFFFFFFFFFFFFFF60
:1018E100FFFFFFFFFFFFFFFFFFFFFFFFFFFFFFFF07
:1018F100FFFFFF35A58308882188218921AA218A34
:10190100216B42718CFFFF728C83080411C408297A
:1019110042FBDE5DEFEC5A830804110411041183CC
:1019210008E831DFFFFFFFFFFFFFFFFFFFFFFFFFC2
:10193100FFFFFFFFFFFFFFFFFFFFFFFFFFFFFFFFB6
:10194100FFBEF7C731C4102519261947194719A831
:10195100298A52284A55ADFFFFE831A30805194DE0
:101961006B4D6BFFFF7DEF4521C410041104110481
:1019710011620076ADFFFFFFFFFFFFFFFFFFFFFFDB
:10198100FFFFFFFFFFFFFFFFFFFFFFFFFFFFFFFF66
:10199100FF96B562000411041905110519C4088BDD
:1019A1004AB6B55DEFF7BDFFFF8E6B62002942AA13
:1019B1005A0842FFFFFFFFCC5283080411041104AF
:1019C10011A308AD52FFFFFFFFFFFFFFFFFFFFFF66
:1019D100FFFFFFFFFFFFFF1CE7FFFFFFFFFFFFFF11
:1019E100FF4E636200041104110411E41062008EC1
:1019F10063FFFFFFFFFFFFFFFFCF730100F39C2C8D
:101A01006396B5FFFFFFFF2D5B83000411041104F2
:101A110011E41067213DEFFFFFFFFFFFFFFFFFFF15
:101A2100FFF8BDB7B59EEFCB52B394FFFFFFFFDFC9
:101A3100FFE831A3080411041104110411A308499A
:101A410042FFF7FFF7FFFFFFFF6A4A01007284FFC1
:101A5100FFFFFFFFF7DFEF093AA3080411041104A8
:101A6100110411051118BEFFFFFFFFFFFFFFFFFF6C
:101A7100FFF07B6200E831C731410035A5FFFF5D12
:101A8100EF4621C4100411041104110411E410A340
:101A910008769DFFF7FFFFB7ADA308A308C7319EE6
:101AA100E7FFF7FFF776A5A308E41004110411047A
:101AB100110511051135A5FFFFFFFFFFFFFFFFFF17
:101AC100FFDBDEA7298300C410C410C4101CE79EED
:101AD100EF0511E41004110411041104110419C4D7
:101AE10008E510D16BD16BC5086400A50843002B34
:101AF10032779DB3842519C4100411041104110413
:101B01001125192609359DFFFFFFFFFFFFFFFFFF8D
:101B1100FFFFFFAF7362000419051982000D5B8E90
:101B21009B62100511041104110419E410850005CC
:101B310011C439815A407B229C43AC03A4839B820C
:101B4100728249C218A400C500E4100419041105E9
:101B51001947196711EC5ABEFFFFFFFFFFFFFFFF97
:101B6100FFDFFFDBDEC410E41004110511A418012E
:101B7100C08388E40005190419C50844214383235F
:101B8100D542FEE4FE27FF07FFA4FE64FE03FEA389
:101B9100FDE2FC42EC83B32462E510C4080419267B
:101BA10019A81987210090D3BCFFFFFFFFFFFFFF9A
:101BB100FFDFFFFFFF107C4200051905118328019B
:101BC100D044F8A348E400C508445A02EDE2FD02FE
:101BD100FE66FE74FFB8FF73FFE7F6A6F645F6A4AE
:101BE100F5C3FC62FCC2FCC2FCE3CBC4490611880C
:101BF100198701A49001F8EC9AFFFFFFFFFFFFFF97
:101C0100FFFFFFFFFFBEF7E83183000509824001B6
:101C1100C023F885F0A348A400445A02FD23CCC296
:101C2100DC04FE28FE48F646F624F6E4F564FDE3FE
:101C3100FC62FCC2FC02E402DCE2FCA47A4801671B
:101C410001C47824F802F884B07DE7FFFFFFFFFFAD
:101C5100FFFFFFFFFFFFFFDBDE2519A300C43802F2
:101C6100E022D844F8A6F8A4786300432183728364
:101C710039829B21F561FD22FDE2FCA2FC42FC427E
:101C8100FC42FC22AB8341C392045226012519A4D4
:101C91009844F823F802F8A4D09EEFFFFFFFFFFF5E
:101CA100FFFFFFFFFFFFFFFFFF9AD68729A5004334
:101CB100B822F823E065F8E8F807C983484200A391
:101CC1000084006329A27A62B3A2CB62D302BB82F1
:101CD1008A8339A400E500E500E508C46064D844BE
:101CE100F824F823F802F88388DBC6FFFFFFFFFF23
:101CF100FFFFFFFFFFFFFFFFFFFFFF3DE7505B0817
:101D01003123E843F844F065F809F9ABF989D106C4
:101D110089A3484218020042006100820062006209
:101D2100008300A320C450A58885D865F844F844F1
:101D3100F823F823F803D08210C7295DEFFFFFFFD6
:101D4100FFFFFFFFFFFFFFFFFFFFFFFFFFFFFF6C35
:101D510032A53802D823F865F866F8A7F84AF90CD5
:101D6100FA4DFA4CEA0BD2A9B968B147A927B107D4
:101D7100B907D1E7E8C7F8A7F865F865F844F8238B
:101D8100F803F802D0A3280509C408EC5AFFFFFFA5
:101D9100FFFFFFFFFFFFFFFFFFFFFFFFFFFBDE0571
:101DA10019C400A741E6C003F886F8A7F887F886AA
:101DB100F8C7F829F98AF9ABF9ABF98BF96AF9296E
:101DC100F908F9C7F8A6F886F865F864F823F80267
:101DD100F006B12529E400E41025192519149DFF09
:101DE100FFFFFFFFFFFFFFFFFFFFFFFFFF96AD625A
:101DF1000082083595BACE8BA244D025F887F8A782
:101E0100F8C7F8A7F887F886F886F886F887F8A75C
:101E1100F8A7F8A6F885F865F864F824F064B80D19
:101E210093BBB6CF6383080411E4106621493A5D80
:101E3100EFFFFFFFFFFFFFFFFFFFFFFFFFD3944215
:101E410000E410BBCEFFFFBEE776B5CCAA07C145C3
:101E5100E045F846F866F886F886F886F886F8656B
:101E6100F845F865F865E844D043A8018882903CBC
:101E7100D7FFEF559583080411041105194619B3CD
:101E810094FFFFFFFFFFFFFFFFFFFFFFFFB3944141
:101E91000086215DDFFFFFFFFFFFFFDFE77AC6D38B
:101EA100B44EB32AC268D1E6E0A6E8A5E8A5E8E603
:101EB100D888C906A922A802A800A000C800D8F79E
:101EC100E5FFE7F8ADC410E4100411E41005118B2F
:101ED1004AFFFFFFFFFFFFFFFFFFFFFFFF55A54188
:101EE10000A7295DDFFFF7FFFFFFFFFFFFFFFFFFF8
:101EF100FFFFEF7DDFDBCE59CEF8CDD7CDF7C5792A
:101F0100CEFBBEABA203F045F842D043E800F0722D
:101F1100D4FFDF39AEE410E4100411E41005118799
:101F210029FFFFFFFFFFFFFFFFFFFFFFFF59CE83E9
:101F31000846211CD7FFF7FFFFFFFFFFFFFFFFFF51
:101F4100FFFFFFFFFFFFFFFFFFFFFFFFFFFFFFFFA0
:101F5100FFFFEF8BBA04F845F862E044F000F88E19
:101F6100DBFFDFF8A5C410E410E4100411E4102530
:101F710019FFFFFFFFFFFFFFFFFFFFFFFFBEF78717
:101F810029830839B6FFF7DFF7FFFFFFFFFFFFFFE8
:101F9100FFFFFFFFFFFFFFFFFFFFFFFFFFFFFFFF50
:101FA100FFBEE74ABA03F845F864F844F800F86E52
:101FB100E3FFD7F48C83080411E410E410E4100566
:101FC10019FFFFFFFFFFFFFFFFFFFFFFFFFFFFEF16
:101FD1007300007284FFEFBEEFDFFFFFFFFFFFFF23
:101FE100FFFFFFFFFFFFFFFFFFFFFFFFFFFFFFFF00
:101FF100FFDFE78BBA03F845F845F823F800F8D37B
:10200100D4FFD74E5B2100293A55A58308C410257A
:1020110019FFFFFFFFFFFFFFFFFFFFFFFFFFFFFBB9
:10202100DEA308E8319EDF9EE7BFEFFFFFFFFFFF62
:10203100FFFFFFFFFFFFFFFFFFFFFFFFFFFFFFFFAF
:10204100FFFFF751BC02E003F803F043E0ECC27E6E
:10205100CFFCBE46212100D394FFFF5184000087AD
:1020610029FFFFFFFFFFFFFFFFFFFFFFFFFFFFFF55
:10207100FF51840000F48CFFEF9EE7BFEFDFFFFF0D
:10208100FFFFFFFFFFFFFFFFFFFFFFFFFFFFFFFF5F
:10209100FFFFFF3DDF55BD52BC72BCB7B55DC7FF49
:1020A100DFF06B0000093ABFF7FFFFFFFF149D55FA
:1020B100A5FFFFFFFFFFFFFFFFFFFFFFFFFFFFFF89
:1020C100FFFFFFAC4AA408BBBEDFE77EE7BEEFDF40
:1020D100F7DFFFFFFFFFFFFFFFFFFFFFFFFFFFFF37
:1020E100FFDFFFDFF7FFEFDFDFBFD79ED7DFDFD8EF
:1020F100A583082611DBD6FFFFFFFFFFFFFFFFFFD0
:10210100FFFFFFFFFFFFFFFFFFFFFFFFFFFFFFFFDE
:10211100FF79EE8BDC2131A9213DCFBFDF7EDF9E30
:10212100E7BEEFBFEFDFF7DFF7DFF7DFF7DFF7BF7F
:10213100EFBEEF9EE77EDF5ED75ED7DFDF9AB62682
:10214100194208EDA3BFFFFFFFFFFFFFFFFFFFFFE6
:10215100FFFFFFFFFFFFFFFFFFFFFFFFFFFFFF7419
:10216100DDC0DB00FE42EE024289217BB6DFDF7E6D
:10217100D77EDF7EDF9EE79EE79EE79EE79EE77EB6
:10218100DF7EDF5DD75DD79EDFFFE7F8A50711E3AF
:102191001802C560FDE6D3DBEEFFFFFFFFFFFFFF87
:1021A100FFFFFFFFFFFFFFFFFFFFFFFFFF9EF78422
:1021B100BAC1FC42FE82FEA2FE8183452174745E97
:1021C100C7DFDF7ED75ED75DD75ED75ED75DD75DD0
:1021D100D75ED79EDFFFE73DC7F1638408425226F1
:1021E100E629FF86FEE0F36AC3FFFFFFFFFFFFFF63
:1021F100FFFFFFFFFFFFFFFFFFFFFFFFFF18DEC134
:10220100D2A2FD22FE42FE42FE62FEE2D4416A49B2
:102211004253743BA63EC7BFD7BFD7BFD7BFDFBFAF
:10222100D73EC71AA6F263A729824122B462FE8370
:10223100FEAAFE0FFF67FD63BA3CEFFFFFFFFFFF42
:10224100FFFFFFFFFFFFFFFFFFFFFFFFFF9AE6809A
:10225100D221FDC2FDE2F5C2F582F582FD62FD618A
:10226100DC219B846AE96A2C63AF6311746E632C71
:1022710063895A0452817AC2CBE2FC62FD82FDC2BB
:10228100FDC2FDE4FD24FD62CA1CE7FFFFFFFFFF65
:10229100FFFFFFFFFFFFFFFFFFFFFFFFFFFFFFB19B
:1022A100CC81D2C0F3C1FC02FD02FDE2FCC2FCC242
:1022B100FC81FC80FBC0C9A48135AD59CE719C2144
:1022C1008100DAA1FB82FCA2FC82FCA2FC02FD22BD
:1022D100FDE2FC00FC60DA90CCFFFFFFFFFFFFFF97
:1022E100FFFFFFFFFFFFFFFFFFFFFFFFFFFFFFFFFD
:1022F100FF59DE0DC406CBE4D203DB03DBE3DAC313
:10230100D2A4C209B3D2BC9EF7FFFFFFFFFFFFFBC0
:10231100E60EB4A6BA83D2E3E202EB22EB22E30398
:10232100DBE4D26AC3B6D5FFFFFFFFFFFFFFFFFF6C
:01233100FFAC
:0D5EBA004A00DAF81FFFE0F80007E0001FC3
:065249007BFF7A16799E3E
:10524F0090003EEBF0A3EAF0A3E9F09000A2E0FAA1
:10525F00A3E0FB90004CE4F0A37414F0A3E4F0A3DC
:10526F00741FF0E4FDFCFFFE1254369000A4E0FE24
:10527F00A3E0FF24ECFDEE34FFFC9000A2E0FAA3C4
:10528F00E0FB90004CEEF0A3EFF0A3E4F0A3741F4B
:10529F00F0E4FFFE12543674FF90009EF0A3F090DE
:1052AF000047E4F0A3741FF090003EE0F9A3E0FA8A
:1052BF00A3E0900049C9F0A3EAF0A3E9F0A37410AA
:1052CF00F0A37401F074FFFBFA7D027C00E4FFFE93
:1052DF00125A949000A5E024EEFD9000A4E034FF54
:1052EF00FC900047E4F0A3741FF0A374FFF0A374C5
:1052FF0014F0A37491F0A37410F0A37401F074FF71
:10530F00FBFAE4FFFE125A949000A2E0FAA3E0FB2E
:10531F009000A5E024ECFE9000A4E034FF90004C38
:10532F00F0A3CEF0E4A3F0A3F07D14FCFFFE025433
:01533F003637
:1057A5007BFF7A1479A012524F900047E4F0A3745E
:1057B5001FF0A374FFF0A37414F0A374B5F0A374E1
:1057C50010F0A37401F07B007AF87D1E7C00E4FFE5
:1057D500FE125A94900047E4F0A3741FF0A374FFDF
:1057E500F0A37414F0A374BEF0A37410F0A37401B5
:1057F500F07B007AF87D3C7C00E4FFFE125A949021
:105805000047E4F0A3741FF0A374FFF0A37414F031
:10581500A374CBF0A37410F0A37401F07BE07AFFBE
:105825007D5A7C00E4FFFE125A94900047E4F0A3F1
:10583500741FF0A374FFF0A37414F0A374E0F0A335
:105845007410F0A37401F07B1F7A007D787C00E46E
:10585500FFFE125A947FDC7E05125F0E7FDC7E050B
:03586500025F0ED1
:103FD4007BFF7A1479FB12524F9000A2E0FAA3E01F
:103FE400FB9000A5E024ECFE9000A4E034FF9000D8
:103FF4004CF0A3CEF074FFA3F0A3F07D147C00E496
:10400400FFFE1254369000A3E024CEFF9000A2E0FD
:1040140034FFFE90005474FFF0A374E0F0A374FF27
:10402400F0A37415F0A3740EF0A37410F0A374013C
:10403400F07B1F7A007D1E7C001234287FF47E0101
:10404400125F0E9000A2E0FAA3E0FB9000A5E0242A
:10405400ECFE9000A4E034FF90004CF0A3CEF0E41A
:10406400A3F0A3F07D14FCFFFE1254369000A3E0ED
:1040740024CEFF9000A2E034FFFE90005474FFF0C1
:10408400A374E0F0A374FFF0A37415F0A37414F008
:10409400A37410F0A37401F07B1F7A007D1E7C00D2
:1040A4001234287FF47E01125F0E9000A2E0FAA37E
:1040B400E0FB9000A5E024ECFE9000A4E034FF9027
:1040C400004CF0A3CEF0A374F8F0A3E4F07D14FC4C
:1040D400FFFE1254369000A3E024CEFF9000A2E02D
:1040E40034FFFE90005474FFF0A374E0F0A374FF57
:1040F400F0A37415F0A3741AF0A37410F0A3740160
:10410400F07B1F7A007D1E7C001234287FF47E0130
:10411400125F0E9000A2E0FAA3E0FB9000A5E02459
:10412400ECFE9000A4E034FF90004CF0A3CEF0A38A
:104134007407F0A374E0F07D147C00E4FFFE1254D5
:10414400369000A3E024CEFF9000A2E034FFFE905E
:10415400005474FFF0A374E0F0A374FFF0A374158B
:10416400F0A3741EF0A37410F0A37401F07B1F7A03
:10417400007D1E7C001234287FF47E01125F0E90B5
:1041840000A2E0FAA3E0FB9000A5E024ECFE90007E
:10419400A4E034FF90004CF0A3CEF0A3E4F0A374A9
:1041A4001FF07D147C00E4FFFE1254369000A3E05F
:1041B40024CEFF9000A2E034FFFE90005474FFF080
:1041C400A374E0F0A374FFF0A37415F0A37424F0B7
:1041D400A37410F0A37401F074FFFBFA7D1E7C003D
:0A41E4001234287FF47E01025F0E02
:1047E700E490003DF07BFF7A15792912524F900033
:1047F700A2E0FAA3E0FB9000A5E024ECFE9000A461
:10480700E034FF90004CF0A3CEF074FFA3F0A3F0C8
:104817007D147C00E4FFFE125436E490003DF090D6
:1048270000A2E0C313FEA3E01324B0FDEE34FFFCA7
:1048370090003DE0F975F00FA4FBAAF02DFFEA3CCC
:10484700FEC006C0079000A4E0C313FEA3E0132434
:10485700B0FFEE34FFCF2BFDEF3AFCC004C005904C
:1048670000A2E0C313FCA3E013FDE975F00FA42D2C
:10487700FFE5F03CCF24ECFBEF34FFFAA3E0C313D2
:10488700FCA3E013FDE975F00FA42DFFE5F03CCF85
:1048970024ECCF34FF900044F0A3EFF0D005D00410
:1048A700D007D0061259EA90003DE025E024DAF55A
:1048B70082E43400F583E0FFA3E090009ECFF0A3ED
:1048C700EFF090003DE004F0E0C394055003024888
:1048D700267FDC7E05125F0E9000A2E0FAA3E0FBC4
:1048E7009000A5E024ECFE9000A4E034FF90004C7B
:1048F700F0A3CEF074FFA3F0A3F07D147C00E4FFD7
:10490700FE125436E490003DF09000A2E0C313FE7F
:10491700A3E01324B0FDEE34FFFC90003DE0F975F1
:10492700F00FA4FBAAF02DFFEA3CFEC006C00790DB
:1049370000A4E0C313FEA3E01324B0FFEE34FFCFBF
:104947002BFDEF3AFCC004C0059000A2E0C313FCA6
:10495700A3E013FDE975F00FA42DFFE5F03CCF248C
:10496700ECFBEF34FFFAA3E0C313FCA3E013FDE96C
:1049770075F00FA42DFFE5F03CCF24ECCF34FF906A
:104987000044F0A3EFF0D005D004D007D006125FA3
:104997005A90003DE025E024DAF582E43400F583FF
:1049A700E0FFA3E090009ECFF0A3EFF090003DE082
:1049B70004F0E0C3940550030249107FDC7E050232
:0249C7005F0E81
:1049C900E490003DF07BFF7A15793F12524F900039
:1049D900A2E0FAA3E0FB9000A5E024ECFE9000A47D
:1049E900E034FF90004CF0A3CEF074FFA3F0A3F0E5
:1049F9007D147C00E4FFFE125436E490003DF090F3
:104A090000A2E0C313FEA3E01324B0FDEE34FFFCC3
:104A190090003DE0F975F019A4FBAAF02DFFEA3CDE
:104A2900FEC006C0079000A4E0C313FEA3E0132450
:104A3900CEFFEE34FFCF2BFDEF3AFCE925E024DA77
:104A4900F582E43400F583E0FAA3E0FB900044E446
:104A5900F0A3741EF0E4A3F0A3F0D007D00612442B
:104A69000690003DE004F0E0C3940540927FDC7EAF
:104A790005125F0E9000A2E0FAA3E0FB9000A5E00A
:104A890024ECFE9000A4E034FF90004CF0A3CEF09B
:104A990074FFA3F0A3F07D147C00E4FFFE125436EA
:104AA900E490003DF09000A2E0C313FEA3E01324BC
:104AB900B0FDEE34FFFC90003DE0F975F019A4FB60
:104AC900AAF02DFFEA3CFEC006C0079000A4E0C38F
:104AD90013FEA3E01324CEFFEE34FFCF2BFDEF3AF4
:104AE900FCE925E024DAF582E43400F583E0FAA351
:104AF900E0FB900044E4F0A3741EF0A3E4F0A304E7
:104B0900F0D007D00612440690003DE004F0E0C35F
:0B4B1900940540917FDC7E05025F0EDA
:1056D6007BFF7A15795512524F90009E74F8F0A30D
:1056E600E4F09000A0F0A3741FF090004274FFF065
:1056F600A37415F0A37468F0E4A3F07B0C7D1EFC84
:105706007F0AFE12586890004274FFF0A37415F0E9
:10571600A37488F0A37401F07B0C7D2D7C007F0AB6
:105726007E0012586890004274FFF0A37415F0A32F
:1057360074A8F0E4A3F07B0C7D3CFC7F0AFE1258B3
:105746006890004274FFF0A37415F0A374C6F0E4E9
:10575600A3F07B107D50FC7F0AFE12586890004231
:1057660074FFF0A37415F0A374E3F0A37401F07B47
:10577600107D647C007F0A7E001258689000427497
:10578600FFF0A37415F0A374FFF0E4A3F07B107D83
:0F57960078FC7F0AFE1258687FB07E04025F0E17
:10592A007BFF7A16791A12524F90005474FFF0A333
:10593A0074E0F0A374FFF0A37416F0A3742DF0A31F
:10594A007410F0E4A3F07B1FFA7D1EFC7F0AFE129E
:10595A00342890005474FFF0A374E0F0A374FFF0AD
:10596A00A37416F0A3744EF0A37410F0A37401F09C
:10597A007B1F7A007D327C007F0A7E0012342890D9
:10598A00005474FFF0A374E0F0A374FFF0A374163C
:10599A00F0A37464F0A37418F0A37401F07B1F7A67
:1059AA00007D467C007F0A7E0012342890005474E1
:1059BA00FFF0A374E0F0A374FFF0A37416F0A374CD
:1059CA0079F0A37420F0A37401F07B1F7A007D6440
:1059DA007C007F0A7E001234287FB07E04025F0EAC
:105340007BFF7A16798812524F9000A2E0FAA3E010
:10535000FB9000A5E024ECFE9000A4E034FF900058
:105360004CF0A3CEF074FFA3F0A3F07D147C00E416
:10537000FFFE1254367BFF7A1679B27D1E7C007FC9
:105380001E7E0012560390005474FFF0A374E0F0E8
:10539000A374FFF0A37416F0A3749BF0A37410F031
:1053A000A37401F07B1F7A007D4B7C007F2A7E0076
:1053B0001234287BFF7A1679B27D1E7C007F5A7EDC
:1053C0000012560390005474FFF0A374E0F0A3742D
:1053D000FFF0A37416F0A3749BF0A37410F0A374F1
:1053E00001F07B1F7A007D4B7C007F667E001234CB
:1053F000287BFF7A1679B27D1E7C007F967E001294
:10540000560390005474FFF0A374E0F0A374FFF00F
:10541000A37416F0A3749BF0A37410F0A37401F0AE
:105420007B1F7A007D4B7C007FA27E001234287F98
:06543000B07E04025F0ED5
:103D9200E49000F2F0A3F0A3F0A3F0A3F0125249D2
:103DA2009000A3E024E8FF9000A2E034FFFE900020
:103DB2004274FFF0A37416F0A374AEF0A37401F082
:103DC2007B10E4FDFC1258689000A2E0FCA3E0FD29
:103DD20024CCFFEC34FFFEED24E2FBEC34FFFA903E
:103DE200004CE4F0A37412F0A374F8F0A3E4F07DA5
:103DF20002FC12543690009E74F8F0A3E4F0124DC7
:103E0200B8EF7003023FCA9000A2E0FEA3E0FF9069
:103E120000B3E0FCA3E0FDC39FEC9E50E19000A440
:103E2200E0FEA3E0FF9000B5E0FAA3E0FBC39FEA47
:103E32009E50CB9000A3E024E8FF9000A2E034FF64
:103E4200FED3ED9FEC9E407BEB9410EA94005073FE
:103E52001252499000F5E0FFA3E090009ECFF0A33C
:103E6200EFF09000A3E024E8FF9000A2E034FFFE10
:103E720090004274FFF0A37416F0A374AEF0A37422
:103E820001F07B10E4FDFC1258689000A2E0FCA354
:103E9200E0FD24CCFFEC34FFFEED24E2FBEC34FF2A
:103EA200FA90004CE4F0A37412F090009EE0FDA39F
:103EB200E090004ECDF0A3EDF07D027C001254366E
:103EC200023E009000A2E0FEA3E0FF24C4FDEE3417
:103ED200FFFC9000B3E0FAA3E0FBD39DEA9C500301
:103EE200023FAEEF24E2FFEE34FFFEC3EB9FEA9EF9
:103EF2004003023FAEC39000B6E094149000B5E0D8
:103F020094004003023FAE9000A2E0FCA3E0FD2437
:103F1200CCFFEC34FFFEC006C007ED24E2FBEC341C
:103F2200FFFA90004CE4F0A37412F09000F3E0FE6C
:103F3200A3E0FF7C007D05123203ED25E0FFEC33A8
:103F4200FE74DA2FF58274003EF583E0FFA3E09061
:103F5200004ECFF0A3EFF0D007D0067D027C001216
:103F620054369000F3E475F00112326EAFF0FE7C2D
:103F7200007D05123203ED25E0FFEC33FE74DA2FEB
:103F8200F58274003EF583E0FFA3E090009ECFF03F
:103F9200A3EFF090009EE0FFA3E09000F5CFF0A326
:103FA200EFF07F0A7E00125F0E023E009000B3E047
:103FB200FEA3E0FFA3E0FCA3E0FD90009EE0FAA3D5
:103FC200E0FB125CAE023E007F0A7E00125F0E0230
:023FD2003E00AF
:1000030000000000000000000000000000000404E5
:10001300040404040004000000140A0A00000000A1
:1000230000000000000014143F140A3F0A0A0000F5
:1000330000041E1505060C14150F0400000012150C
:100043000D0A142C2A1200000000040A0A1E1515BA
:100053000936000000020201000000000000000059
:1000630000201008080808080810200000020408EF
:10007300080808080804020000000004150E0E1505
:100083000400000000000404041F04040400000032
:100093000000000000000000000202010000000058
:1000A300001F00000000000000000000000000002E
:1000B3000002000000100808080404020202010004
:1000C30000000E1111111111110E000000000406A1
:1000D30004040404040E000000000E1111080402BD
:1000E300011F000000000E11100C1010110E000073
:1000F3000000080C0A0A091E0818000000001F016E
:10010300010F1010110E000000000E09010F111154
:10011300110E000000001F09080404040404000079
:1001230000000E11110E1111110E000000000E112E
:1001330011111E10120E0000000000000400000048
:10014300000400000000000000040000000404009C
:100153000020100804020408102000000000000022
:100163001F00001F000000000002040810201008F8
:100173000402000000000E11110804040004000032
:1001830000000E111915151D011E000000000404C6
:100193000C0A0A1E1233000000000F12120E121274
:1001A300120F000000001E1101010101110E0000D9
:1001B30000000F1212121212120F000000001F1281
:1001C3000A0E0A02121F000000001F120A0E0A0282
:1001D3000207000000001C1201013911120C00007B
:1001E30000003312121E12121233000000001F040B
:1001F30004040404041F000000003E080808080863
:1002030008090700000037120A060A0A123700001D
:100213000000070202020202223F000000001B1B33
:100223001B1B15151515000000003B1216161A1A94
:100233001217000000000E1111111111110E000010
:1002430000000F12120E02020207000000000E113E
:1002530011111117190E180000000F12120E0A12B5
:100263001237000000001E1101060810110F0000D4
:1002730000001F1504040404040E000000003312E0
:1002830012121212120C000000003312120A0A0C8E
:100293000404000000001515150E0A0A0A0A0000DE
:1002A30000001B0A0A04040A0A1B000000001B0AC0
:1002B3000A040404040E000000001F0908040402D9
:1002C300121F0000001C04040404040404041C00A2
:1002D300000202020404080808100000000E0808C7
:1002E3000808080808080E0000040A0000000000BF
:1002F3000000000000000000000000000000003FBC
:1003030000040000000000000000000000000000E6
:10031300000C121C123C000000000302020E121219
:10032300120E000000000000001C1202021C00005C
:1003330000001810101C1212123C000000000000F4
:10034300000C121E021C000000003804041E0404EA
:10035300041E000000000000003C120C021E221CC0
:1003630000000302020E1212123700000000040004
:1003730000060404040E000000000800000C080836
:100383000808080700000302023A0A0E12370000A9
:100393000000070404040404041F0000000000001C
:1003A300000F15151515000000000000000F1212B4
:1003B3001237000000000000000C1212120C0000A3
:1003C30000000000000F1212120E020700000000CE
:1003D300001C1212121C103800000000001B060241
:1003E3000207000000000000001E020C101E0000A7
:1003F30000000004040E04040418000000000000C0
:10040300001B1212123C0000000000000037120A09
:100413000C040000000000000015150E0A0A00007D
:1004230000000000001B0A040A1B0000000000007B
:100433000037120A0C04040300000000001E080425
:10044300041E00000018080808040808080818001B
:10045300080808080808080808080808000604042B
:100463000408040404040600022518000000000028
:100473000000000000000000000000000000000079
:100483000000000000000008080808080808000031
:100493001818000000486C2412000000000000003F
:1004A300000000000000002424247F1212127F1297
:1004B300121200000000081C2A2A0A0C1828282AF5
:1004C3002A1C080800000022251515152A58545423
:1004D300542200000000000C1212120A7625291182
:1004E300916E0000000606040300000000000000F7
:1004F3000000000000402010100808080808081039
:1005030010204000000204080810101010101008FA
:10051300080402000000000008086B1C1C6B08089C
:100523000000000000000000080808087F08080811
:1005330008000000000000000000000000000000B0
:10054300060604030000000000000000FE00000097
:100553000000000000000000000000000000000098
:100563000606000000008040402020101008080408
:100573000402020000000018244242424242424266
:1005830024180000000000080E08080808080808DE
:10059300083E00000000003C4242422020100804B4
:1005A300427E00000000003C4242201820404042AE
:1005B300221C0000000000203028242422227E2058
:1005C300207800000000007E0202021A264040420A
:1005D300221C0000000000382402021A2642424274
:1005E300241800000000007E2222101008080808CA
:1005F300080800000000003C424242241824424202
:10060300423C00000000001824424242645840402B
:10061300241C000000000000000018180000000067
:10062300181800000000000000000008000000008F
:100633000008080400000040201008040204081009
:10064300204000000000000000007F0000007F0049
:1006530000000000000000020408102040201008E1
:10066300040200000000003C4242464020101000FB
:10067300181800000000001C225A555555552D42EC
:10068300221C00000000000808181414243C224215
:1006930042E700000000001F2222221E22424242A3
:1006A300221F00000000007C4242010101010142BF
:1006B300221C00000000001F2242424242424242EA
:1006C300221F00000000003F4212121E12120242BB
:1006D300423F00000000003F4212121E12120202AB
:1006E300020700000000003C2222010101712122C7
:1006F300221C0000000000E7424242427E42424286
:1007030042E700000000003E08080808080808083F
:10071300083E00000000007C101010101010101094
:100723001010110F0000007722120A0E0A12122273
:100733002277000000000007020202020202020206
:10074300427F000000000077363636362A2A2A2AEE
:100753002A6B0000000000E346464A4A52525262A6
:10076300624700000000001C2241414141414141D8
:10077300221C00000000003F424242423E020202AD
:10078300020700000000001C2241414141414D533A
:10079300321C60000000003F4242423E12122222FD
:1007A30042C700000000007C42420204182040427D
:1007B300423E00000000007F4908080808080808B6
:1007C300081C0000000000E742424242424242420B
:1007D300423C0000000000E7424222242414141883
:1007E300080800000000006B494949495555362265
:1007F30022220000000000E74224241818182424B1
:1008030042E70000000000772222141408080808B9
:10081300081C00000000007E212010100804044280
:10082300423F00000078080808080808080808087C
:1008330008087800000002020404080808101020C9
:1008430020204040001E1010101010101010101027
:1008530010101E00003844000000000000000000DB
:100863000000000000000000000000000000000085
:10087300000000FF00060800000000000000000068
:1008830000000000000000000000003C42784442E9
:1008930042FC0000000000030202021A2642424208
:1008A300261A000000000000000000384402020283
:1008B3004438000000000060404040784442424217
:1008C30064D80000000000000000003C427E0202E9
:1008D300423C0000000000F08808087E0808080871
:1008E300083E0000000000000000007C22221C02E1
:1008F3003C42423C000000030202023A46424242AA
:1009030042E700000000000C0C00000E0808080875
:10091300083E000000000030300000382020202076
:100923002020221E0000000302020272120A161285
:10093300227700000000000E0808080808080808CD
:10094300083E0000000000000000007F9292929297
:1009530092B70000000000000000003B4642424204
:1009630042E70000000000000000003C4242424217
:10097300423C0000000000000000001B26424242EF
:10098300221E020700000000000000784442424299
:10099300447840E000000000000000774C040404A9
:1009A300041F0000000000000000007C42023C40E5
:1009B300423E0000000000000008083E0808080846
:1009C3000830000000000000000000634242424281
:1009D30062DC000000000000000000E74224241451
:1009E3000808000000000000000000EB49495555CD
:1009F30022220000000000000000007624181818CE
:100A0300246E000000000000000000E742242414CC
:100A130018080807000000000000007E22100808E4
:100A2300447E000000C02020202020102020202011
:100A33002020C000101010101010101010101010F3
:100A43001010101000060808080808100808080805
:100A5300080806000C32C20000000000000000007D
:100A630000000000C9EE000027FC140414A4811048
:100A730042084040104017FC2040E0E0215022484B
:100A83002C4620400040DBDA1104112411241124E8
:100A93001124FD24112411241124112411241D24B3
:100AA300E124422402040404CAD00200010000002D
:100AB3007FFC0100010001003FF821082108210803
:100AC30021082128211001000100C8AB000000000B
:100AD300018002400430180860061FF9010001007C
:100AE30001003FF80100010001007FFEB6AF0000E6
:100AF300000000203E20007C002200227F221022E2
:100B0300102212221222224223423D82009CB5E788
:100B13000000010001001FF0610C410441047FFC4F
:100B23004104410441047FFC01000102010201FC74
:100B3300D7D3000000003FF80010006000800100E0
:100B430000807FFE0040004000200020002018406D
:100B53000780BCBC00000000104013FE10407C4026
:100B6300104013FC1104190830885050106010D045
:100B730013087C06CAF500000100013001080100DA
:100B83007FFE018003400540052009101108210460
:100B9300410201000100D3D00000010002007FFEEA
:100BA300040008001FFC700490041FFC10041004D0
:100BB3001FFC10041004103CCFDE000000007BFC7F
:100BC3004A044A044BFC52044A044BFC4A404A443C
:100BD3007A2842304210420843C6B9AB00000000F5
:100BE30004400420081010101008210442020220BF
:100BF30004100810080810081FFC0004CBBE0000F6
:100C030000003FFC000400043FF400043FE4202400
:100C130020242024202420241FC40004007CBBB6ED
:100C23000000000000807EFC02A202A222A4152480
:100C330014240C300C300C481248228442840102E4
:100C4300D3AD000000002398246414440444644496
:100C5300144414441444144415C4125C1040284032
:100C630047FEC4FA00000000120013FE24222522CE
:100C7300652862242224242020E0050814842444C7
:100C8300241A47F2B4BF00000020102013FE2020D6
:100C930026244A247A241224222423FC7C200022A2
:100CA30004227822003CC9AB0000000004000FF0CE
:100CB300102020207FFC20842084208420843FF87F
:100CC3002000200220021FFECCEE00000000204086
:100CD30023FE204079FC220423FC220423FC22046B
:100CE30023FC3A0465FA01980204B3E4000001000E
:100CF30001007FFE02200410040808043FFC0442A4
:100D030004400440044208421042607EBED8000002
:100D13000000207E3E804880488048FE48827F82D3
:100D230008820C8214FA12842280218040FED0CEE5
:100D3300000000007F842208223022C02202220405
:100D43007FC8223022C222022204220822304040DD
:100D5300BBAD000000007FFE00000FF0111011106A
:100D6300111051125FF25112511251124FF24002FF
:100D73007FFCD4B2000000007FFE47E24812481215
:100D830047E24FF2501250125112511242924472E2
:100D9300580A3FFCCDBC000000003FFE440247F26E
:100DA3004C225362408243625E1A41824062430294
:100DB30040C240223FFCC6AC00000040204020401F
:100DC30020403FFE2000200020003FE020102010A4
:100DD3002010201040104010CFD4000000003FFC32
:100DE300200420043FFC200420041FF8244414485A
:100DF300144814480C5004407FFECABE0000000093
:100E03003FFC0000000000007FFE0080089008887F
:100E1300108810842084208240820780B2CB000097
:100E2300002008207FFE002000783F8811080890EA
:100E330009207FFE018003400D30310C4002B5A52F
:100E430000000010081004203FF8210421043FFC97
:100E5300210421043FF801007FFE0100010001008D
:100E6300D6D000000100010001003FFC2104210451
:100E730021042104210421043FFC0100010001009D
:100E83000100D3A20000000008207FFE08200920F3
:100E930001003FF82108210821081FF40140022026
:100EA3000C10700ECEC400000100010000803F7CD6
:100EB3000810081004100420022002400180018061
:100EC30002601C18E006D7DB00000000102011FEB2
:100ED3002202220249FC5800300013FE25287924FF
:100EE30001240D24722202A2BACF00000000018067
:100EF30002400430180860061FF800001FF82004A1
:100F030020042004200420041FF8C1C100000100B4
:100F130001007FFE00003FF820083FF83FF840063D
:100F230047C24824082008221022603EB6C80000A9
:100F3300000000803FFE44105FFC4410441043F067
:100F430040005FF84408423041C04360BC1EB2E237
:100F53000000000067C2145205520552C5522552C3
:100F63000552055215521752228222424442483EEC
:100F7300CAD4000000002014101417FE0012001041
:100F8300601013F0109010901090149214EA1F0A3E
:100F93000006B3CC0000000019FE72021202120216
:100FA3007DFC18001BFE3420502053FE102010201F
:100FB300102013FED0F20000000000803FFE40002E
:100FC30047FC4208413040C05FFE4042404240443B
:100FD300404840404440B5F70000000023FE122281
:100FE30002FA0222E22212FE1272128A128A128A72
:100FF30016BA1A421202040EB9E2000001000104FB
:1010030011080908091009207FFE04400440044028
:101013000440084208421042607CB0E60000000031
:1010230048FE4900490049007EFE4182414479441B
:10103300452845284510452846440382C8A8000092
:101043001000100013FC7D04110419041884348863
:101053005048505010201050108813041402CBF93C
:10106300000000003F7C204020403E40227E22447E
:10107300224422443E842084208440844104420448
:10108300C9EE0000000000001000000800080C7FFB
:10109300FC04401001C8A002186042301832231823
:1010A30012C30014030004030C047FF0080F80082C
:1010B3000B4078136018332018631818831C190326
:1010C30008180300000300000000DBDA0000000042
:1010D300000004100C04180C04108C04108C041071
:1010E3008C04108C04D08C3F108C04108C04108C56
:1010F30004108C04108C04108C04108C05F08C0EDE
:10110300208C78208C20408C00808C01000C020005
:101113000C000000CAD000000000000000300000F6
:10112300180000180800001C1FFFE000180000183A
:101133002007FFF0041820041820041820041820A6
:10114300041820041820041820041820041820046C
:1011530018E0041840001800001800000000D6D062
:101163000000000000000000000000000018000064
:1011730018000018000018003FFFFE301806301852
:10118300063018063018063018063FFFFE301806E2
:1011930000180000180000180000180000180000D4
:1011A3000000000000000000CEC4000000000000AA
:1011B300000000003800001C00000600FFFFFF06CF
:1011C30000300600300300600300600180C000C1EE
:1011D3008000E300003600001C0000770003C1E03C
:1011E3001E003C600007000000000000000000003B
:1011F3000000B2E200000000000000000000000058
:1012030040000321FF33398333118333019B33C1FF
:101213009B33719B33199B33019B33019B33119B8D
:101223003319B333303033306C0330C60363830375
:101233002E01BE000000000000000000CAD4000020
:10124300000000000000000000004000D83000CE85
:101253001800C21C00C001FFFF0000C0F800C01846
:1012630000C019FFC01818401818601918601B181F
:10127300611E18311C1FB139F01910000F00000056
:10128300000000000000D7D60000000000060000A8
:10129300000300000000C0000001C0C0000107C03F
:1012A3000001FF00021FFE0007F01C0007C07000D2
:1012B3000F00E0000E03F0001C0FF0003C0F700065
:1012C3003C00E0001800C0000000C0000000C000A7
:1012D3000000600000002000000037000001FF0054
:1012E300007FF80007F830001F80300000803000D6
:1012F30000C03000006060000018E000000FC00074
:101303000006000000000000CCE500000000000023
:101313000000000000C0000000E0002001B80070E1
:101323003FF80061FFC000C3030001C60600038C41
:10133300060003080C0006080C000E18183F1E10C8
:101343001BF31F903F0700803C1C0190707C0190B1
:1013530060FE01A0C3F801A00FD803A00818036022
:1013630000180340001803C000180380001803008E
:1013730000180000001800000010000000300000FA
:1013830000300000000000000000B2E20000000096
:10139300000000000000000000000000020C100824
:1013A300071FF80403BFF00201BC300303EC300352
:1013B300015C600300D8600300D860038098620377
:1013C30061B8430771B14306313243063376C3062E
:1013D3003A64C7063EECC0063E78C0063C30400681
:1013E3007C70000678E060067BFFF006F7C000061D
:1013F300E400000640000006000000060000007C38
:1014030000008FF000007C0000000000CAD4000040
:101413000000000000000000000000003F0000008A
:101423007F8000000180000000C0000000C00000B9
:1014330000CE038000CFFFC000DD41800FFE000718
:10144300FFFC000C00F000180FC03E19FF40F31121
:10145300BC6083307FE003B1FE2003338020037040
:101463000030036000100360001807C0000C07C0C1
:1014730000040780000201000003000000010000D7
:0E14830000000000000000000000000000005B
:105E8700900054FEE0FCA3E0FD900053E02DFD9050
:0D5E97000052E03CFC900058E0FAA3E0FB54
:105EA40090005AEAF0A3EBF0125F7F90005AE0FEF4
:065EB400A3E0FF025FE61F
:0E543600900046EEF0A3EFF0A3ECF0A3EDF033
:10544400900046E0FEA3E0FFC3EB9FFFEA9ECF245B
:1054540001CF3400900050F0A3EFF0900048E0FE3C
:10546400A3E0FFC390004DE09FFF90004CE09ECF6F
:105474002401CF3400900052F0A3EFF0900048E0F4
:10548400FCA3E0FDEB24FFFBEA34FFFA90004CE0C0
:10549400FEA3E024FFFFEE34FF900078F0A3EFF0CA
:1054A400900046E0FEA3E0FF125DCED292C293E4E8
:1054B400FDFCD3900053E09D900052E09C4030E40A
:1054C400FBFAD3900051E09B900050E09A40199071
:1054D400004EE0F580C291D291A3E0F580C291D252
:1054E400910BBB00010A80DA0DBD00010C80C3D210
:1054F400939000A3E024FFFB9000A2E034FFFA9015
:1055040000A5E024FFFE9000A4E034FF900078F0B2
:0B551400A3CEF0E4FDFCFFFE025DCE24
:0E45FC00900046EEF0A3EFF0A3ECF0A3EDF07C
:10460A00E4900050F0A3F0A3F0A3F0900046E0FE7F
:10461A00A3E0FFC3EB9FFFEA9E900054F0A3EFF0E4
:10462A00900048E0FAA3E0FBC390004DE09BFE90A7
:10463A00004CE09A900056F0A3CEF0900046E0FFBE
:10464A00A3E090005ECFF0A3EFF0A3EAF0A3EBF0B3
:10465A00900054E0FEA3E0FFD39400EE64809480BF
:10466A00400A90005AE4F0A304F08021EF4E70084B
:10467A0090005AF0A3F0801574FF90005AF0A3F04E
:10468A00C3E49FFFE49E900054F0A3EFF09000561D
:10469A00E0FEA3E0FFD39400EE64809480400A9089
:1046AA00005CE4F0A304F08021EF4E700890005CF7
:1046BA00F0A3F0801574FF90005CF0A3F0C3E49FB0
:1046CA00FFE49E900056F0A3EFF0900056E0FEA3A0
:1046DA00E0FF900054E0FCA3E0FDD39FEE6480F875
:1046EA00EC6480989000584007ECF0A3EDF0800548
:1046FA00EEF0A3EFF0E490004EF0A3F0900059E042
:10470A002401FF900058E03400FED390004FE09F50
:10471A0090004EE09E40030247E690005EE0FEA352
:10472A00E0FFA3E0FCA3E0FD125EE6900054E0FE89
:10473A00A3E0FF900051E02FF0900050E03EF0908F
:10474A000056E0FEA3E0FF900053E02FF0900052E5
:10475A00E03EF0900058E0FEA3E0FF900050E0FC3D
:10476A00A3E0FDD39FEE6480F8EC6480984020EDCE
:10477A009FFFEC9E900050F0A3EFF090005AE0FEED
:10478A00A3E0FF90005FE02FF090005EE03EF09023
:10479A000058E0FEA3E0FF900052E0FCA3E0FDD346
:1047AA009FEE6480F8EC6480984020ED9FFFEC9EB9
:1047BA00900052F0A3EFF090005CE0FEA3E0FF90BF
:1047CA000061E02FF0900060E03EF090004FE004BE
:0C47DA00F0700690004EE004F00247066C
:0147E60022B0
:1059EA00900042EAF0A3EBF090003EEEF0A3EFF055
:1059FA00A3ECF0A3EDF0C007A3E0FAA3E0FB90004C
:105A0A0040E0FFA3E090004CCFF0A3EFF0D00712E4
:105A1A0045FC90003EE0FAA3E0FBFFAE02C007A3FC
:105A2A00E0FCA3E0FD900044E0FFA3E090004CCF2F
:105A3A00F0A3EFF0D0071245FC900044E0FCA3E08D
:105A4A00FD900042E0FAA3E0FBA3E0FFA3E0900090
:105A5A004CCFF0A3EFF090003EE0FEA3E0FF12452A
:105A6A00FC900042E0FAA3E0FBFFAE02C007900000
:105A7A0040E0FCA3E0FD900044E0FFA3E090004C6E
:0A5A8A00CFF0A3EFF0D0070245FCB7
:105F5A00C007900044E0FFA3E090004CCFF0A3EF0D
:105F6A00F090009EE0FFA3E090004ECFF0A3EFF088
:055F7A00D007025436BF
:104C7B00900056F0A3EFF0900042E0FFA3E090000D
:0E4C8B0058CFF0A3EFF090003EE0FEA3E0FF54
:104C9900900052ECF0A3EDF0900050EEF0A3EFF08D
:104CA900900054EAF0A3EBF02FFFEE3AA3125E8ACC
:104CB900900054E0FEA3E0FFC3900051E09FFF90F5
:104CC9000050E09EFE900056125E8B900054E0FE6C
:104CD900A3E0FF900051E02FFF900050E03EFE90CE
:104CE9000056E0FCA3E0FDC3900053E09DFD900059
:104CF90052E09C125E9B900054E0FEA3E0FFC3903B
:104D09000051E09FFF900050E09EFE900056E0FCAD
:104D1900A3E0FDC3900053E09DFD900052E09C127A
:104D29005E9B900056E0FEA3E0FF900051E02FFF4C
:104D3900900050E03E125E87900056E0FEA3E0FF2F
:104D4900C3900051E09FFF900050E09E125E879053
:104D59000056E0FEA3E0FF900051E02FFF900050C5
:104D6900E03EFE900054E0FCA3E0FDC3900053E058
:104D79009DFD900052E09C125E9B900056E0FEA3C0
:104D8900E0FFC3900051E09FFF900050E09EFE902D
:104D99000054E0FCA3E0FDC3900053E09DFD9000AA
:0F4DA90052E09CFC900058E0FAA3E0FB025EA4ED
:1044060090003EEEF0A3EFF0A3ECF0A3EDF0A3EAEC
:04441600F0A3EBF034
:10441A00E4900048F0A3F0900044E0FEA3E0FF908F
:10442A00004AEEF0A3EFF025E0FFEE33FEC374037B
:10443A009F90004FF0E49E90004EF0900046E0708E
:10444A0002A3E0700302454990004AE0FEA3E0FFA0
:10445A00900048E0FCA3E0FDD39FEE6480F8EC6492
:10446A00809840030245FB90004CECF0A3EDF090DD
:10447A00004AE0FEA3E0FFD390004DE09FEE648087
:10448A00F890004CE0648098502B900040E0FCA328
:10449A00E0FD900048E0FAA3E0FB90004CE0FFA3A7
:1044AA00E0CF124C7B90004DE004F070C290004CBB
:1044BA00E004F080BA90004EE0FCA3E0FDC3EC6497
:1044CA008094805023900048E0FEA3E07802C33332
:1044DA00CE33CED8F92DFFEC3ECF2406CF34009050
:1044EA00004EF0A3EFF0804390004AE0FEA3E0FF05
:1044FA00C3900049E09FFF900048E09EFEEF7802DB
:10450A00C333CE33CED8F9FF90004FE02FFF90008F
:10451A004EE03ECF240ACF3400F0A3EFF090004BD8
:10452A00E024FFF090004AE034FFF0900049E004F4
:10453A00F06003024452900048E004F002445290B2
:10454A00004AE0FEA3E0FF900048E0FAA3E0FBD3B4
:10455A009FEE6480F8EA64809840030245FB90006D
:10456A0040E0FCA3E0FDEE124C7B90004EE0FCA381
:10457A00E0FDC3EC648094805023900048E0FEA3E1
:10458A00E07802C333CE33CED8F92DFFEC3ECF24E8
:10459A0006CF340090004EF0A3EFF0804390004A1B
:1045AA00E0FEA3E0FFC3900049E09FFF900048E0CF
:1045BA009EFEEF7802C333CE33CED8F9FF90004F78
:1045CA00E02FFF90004EE03ECF240ACF3400F0A344
:1045DA00EFF090004BE024FFF090004AE034FFF047
:1045EA00900049E004F07006900048E004F00245AB
:0145FA004977
:0145FB00229D
:1041EE00F090005AE0900068F0900052E0FAA3E0E0
:0141FE00FBC5
:1041FF0090005EEEF0A3EFF0900062EAF0A3EBF018
:08420F00900060ECF0A3EDF05B
:1042170090009EE0FFA3E090006CCFF0A3EFF0903A
:104227000066E024E0F0A3E0F9C313FF7E009000EE
:104237005EE0FAA3E02FFFEE3ACF24FFFBEF34FF57
:10424700FAE9FFA3E0F8A3E02FFFEE38CF24FFCF72
:1042570034FF900078F0A3EFF090005EE0FEA3E05B
:10426700FF125DCE900068E0600302430E90006A83
:10427700F0900067E0FF90006AE0FEC39F400302F2
:1042870043CDEFB40C17900066E075F00CA424033F
:10429700F582E5F03400F583E5822E801A90006AF6
:1042A700E0FF900066E075F010A42477F582E5F052
:1042B7003404F583E5822FF582E43583F583E493AF
:1042C700900069F0E490006BF0900067E0C313FF83
:1042D70090006BE0C39F5026900069E030E00590A6
:1042E70000628003900064E0FEA3E0FF125FE690A7
:1042F7000069E0C313F090006BE004F080CB9000FE
:104307006AE004F0024278E490006AF0900067E007
:10431700FF90006AE0FEC39F40030243CDEFB40C59
:1043270017900066E075F00CA42403F582E5F034DD
:1043370000F583E5822E801A90006AE0FF90006600
:10434700E075F010A42477F582E5F03404F583E5F1
:10435700822FF582E43583F583E493900069F0E4D6
:1043670090006BF0900067E0C313FF90006BE0FED6
:10437700C39F5049900062E0FDA3E090009ECDF0FE
:10438700A3EDF0900069E030E024EEFF90005FE0DD
:104397002FFF90005EE03400FE90006AE0FD900081
:1043A70061E02DFD900060E03400FC125EE69000B5
:1043B70069E0C313F090006BE004F080A790006AF7
:1043C700E004F002431390006CE0FFA3E090009E2E
:1043D700CFF0A3EFF09000A3E024FFFB9000A2E052
:1043E70034FFFA9000A5E024FFFE9000A4E034FF1C
:0F43F700900078F0A3CEF0E4FDFCFFFE025DCE57
:1058680090003DEEF0A3EFF0A3ECF0A3EDF0A3EB76
:10587800F0900042E0FBA3E0FAA3E0F91231BDFF8B
:10588800D3947E4003025929EFC394205003025950
:10589800299000A3E024FFFD9000A2E034FFFC90D3
:1058A800003DE0FEA3E0FFD39DEE9C50749000A560
:1058B800E024FFFB9000A4E034FFFA90003FE0FCF6
:1058C800A3E0FDD39BEC9A50589000A0E0FBA3E026
:1058D800900064CBF0A3EBF0900042E0FBA3E0FA69
:1058E800A3E0F91231BD900066F0900041E090000D
:1058F80067F0900045E0900068F090009E1241FA31
:10590800900041E0C313FF90003EE02FF090003D6F
:10591800E03400F0900043E475F001123258025868
:025928007922E2
:085D85009000ECEFF0A3EDF03B
:105D8D00A31233EB000000019000EDE0FF14F0EFE3
:105D9D006020A3E0F8A3E0F9A3E0FAA3E0FB9000F4
:105DAD00ECE0FFE4FCFDFE1232A39000EE1233DFB7
:105DBD0080D69000EEE0FCA3E0FDA3E0FEA3E0FFA3
:015DCD0022B3
:0E5138009000CDEEF0A3EFF0A3ECF0A3EDF0AD
:10514600E49000D9F09000D7F09000D5E0FF9000F1
:10515600D7E0FEC39F4003025248C3EF9E14FD7F73
:105166000A125D85A804A905AA06AB079000D1E03E
:10517600FCA3E0FDA3E0FEA3E0FF12332EE47B0ACE
:10518600FAF9F812332E9000D8EBF0A3E07057909E
:1051960000D5E014FF9000D7E0FEC39F5048A3E07F
:1051A600703E9000D6E0F9C3138EF0A4FF9000CEB7
:1051B600E02FFF9000CDE035F0FEC0079000CFE075
:1051C600FCA3E0FD90009EE0FAA3E0FB9000A0E0C7
:1051D600FFA3E0900064CFF0A3EFF0A37420804D0E
:1051E6009000D97401F09000D6E0F9C313FFA3E054
:1051F600FEEF8EF0A4FF9000CEE02FFF9000CDE0F2
:1052060035F0FEC0079000CFE0FCA3E0FD90009EC5
:10521600E0FAA3E0FB9000A0E0FFA3E0900064CFDB
:10522600F0A3EFF09000D8E02430900066F0A3E9F8
:10523600F0E4A3F0D0071241FF9000D7E004F0029B
:02524600514FC6
:015248002243
:1036C900900060ECF0A3EDF0A3EAF0A3EBF090001A
:0636D9005EEEF0A3EFF02D
:1036DF00900070EEF0A3EFF090006EE4F0A3742E64
:1036EF00F0E490006CF0A3F090006EE0FEA3E0FF1A
:1036FF0090006CE0FCA3E0FDC39FEC9E40030238FA
:10370F00E2900066E0FBA3E0FAA3E0F91231BDFFFF
:10371F00900A6775F022ED12341CEC75F022A42587
:10372F0083F583E4936F60030238D1900001123167
:10373F00D6FF90006CA3E0900A6875F02212341C3B
:10374F00EC75F022A42583F583E4936F60030238B0
:10375F00D190005EE0FAA3E0FBFFAE02C006C00707
:10376F00A3E0FCA3E0FDEB240FFBE43AFA9000602A
:10377F00E0FEA3E0240FFFE43E900078F0A3EFF00B
:10378F00D007D006125DCEE490006AF0E490006B93
:10379F00F090006BE0FFC3940840030238C2900022
:1037AF0069E0705AA3E0FE90006CE0FCA3E0900A81
:1037BF006975F02212341CEC75F022A42583F58371
:1037CF00E5822EF582E43583F583E493FD3395E0AE
:1037DF00FC74807E00A807088006CEA2E713CE13E4
:1037EF00D8F8FFEE5CFEEF5D4E600590006280033F
:1037FF00900064E0FEA3E0FF125FE60238B990008C
:10380F0062E0FFA3E090009ECFF0A3EFF090006A7C
:10381F00E0FF90006CE0FCA3E0900A6975F02212C3
:10382F00341CEC75F022A42583F583E5822FF582F5
:10383F00E43583F583E493FD3395E0FC90006BE072
:10384F00FF74807E00A807088006CEA2E713CE1370
:10385F00D8F8FFEE5CFEEF5D4E601190005EE0FE6B
:10386F00A3E0FFA3E0FCA3E0FD125EE690005FE0A3
:10387F0004F0700690005EE004F0900070E0FEA38C
:10388F00E0FFC390005FE09FFD90005EE09EFCEDC7
:10389F0064104C7015EEF0A3EFF0900061E004F0AF
:1038AF007011900060E004F0800990006BE004F06C
:1038BF000237A090006AE004F0E0C39420500302A6
:1038CF00379B90006DE004F0700690006CE004F000
:1038DF000236F79000A3E024FFFB9000A2E034FF34
:1038EF00FA9000A5E024FFFE9000A4E034FF9000C2
:0D38FF0078F0A3CEF0E4FDFCFFFE025DCEEC
:10390C00900060ECF0A3EDF0A3EAF0A3EBF09000D4
:06391C005EEEF0A3EFF0E7
:10392200900070EEF0A3EFF090006EE4F0A3740745
:10393200F0E490006CF0A3F090006EE0FEA3E0FFD4
:1039420090006CE0FCA3E0FDC39FEC9E4003023BB1
:1039520025900066E0FBA3E0FAA3E0F91231BDFF77
:1039620090108375F04AED12341CEC75F04AA425D0
:1039720083F583E4936F6003023B149000011231DC
:10398200D6FF90006CA3E090108475F04A12341CAC
:10399200EC75F04AA42583F583E4936F6003023B40
:1039A2001490005EE0FAA3E0FBFFAE02C006C0077F
:1039B200A3E0FCA3E0FDEB2417FBE43AFA900060DD
:1039C200E0FEA3E02417FFE43E900078F0A3EFF0BE
:1039D200D007D006125DCEE490006AF0E490006B4E
:1039E200F090006BE0FFC394084003023B05900097
:1039F20069E0705AA3E0FE90006CE0FCA3E0901036
:103A02008575F04A12341CEC75F04AA42583F583BF
:103A1200E5822EF582E43583F583E493FD3395E068
:103A2200FC74807E00A807088006CEA2E713CE139E
:103A3200D8F8FFEE5CFEEF5D4E60059000628003F9
:103A4200900064E0FEA3E0FF125FE6023AFC900001
:103A520062E0FFA3E090009ECFF0A3EFF090006A37
:103A6200E0FF90006CE0FCA3E090108575F04A1234
:103A7200341CEC75F04AA42583F583E5822FF58288
:103A8200E43583F583E493FD3395E0FC90006BE02D
:103A9200FF74807E00A807088006CEA2E713CE132B
:103AA200D8F8FFEE5CFEEF5D4E601190005EE0FE26
:103AB200A3E0FFA3E0FCA3E0FD125EE690005FE05E
:103AC20004F0700690005EE004F0900070E0FEA347
:103AD200E0FFC390005FE09FFD90005EE09EFCED82
:103AE20064184C7015EEF0A3EFF0900061E004F062
:103AF2007011900060E004F0800990006BE004F027
:103B02000239E390006AE004F0E0C39448500302F3
:103B120039DE90006DE004F0700690006CE004F075
:103B220002393A9000A3E024FFFB9000A2E034FFA8
:103B3200FA9000A5E024FFFE9000A4E034FF90007C
:0D3B420078F0A3CEF0E4FDFCFFFE025DCEA6
:103B4F00900060ECF0A3EDF0A3EAF0A3EBF090008F
:063B5F005EEEF0A3EFF0A2
:103B6500900070EEF0A3EFF090006EE4F0A3740403
:103B7500F0E490006CF0A3F090006EE0FEA3E0FF8F
:103B850090006CE0FCA3E0FDC39FEC9E4003023D6A
:103B950068900066E0FBA3E0FAA3E0F91231BDFFEF
:103BA50090128975F082ED12341CEC75F082A42513
:103BB50083F583E4936F6003023D57900001123152
:103BC500D6FF90006CA3E090128A75F08212341C27
:103BD500EC75F082A42583F583E4936F6003023DC1
:103BE5005790005EE0FAA3E0FBFFAE02C006C007F7
:103BF500A3E0FCA3E0FDEB241FFBE43AFA90006090
:103C0500E0FEA3E0241FFFE43E900078F0A3EFF070
:103C1500D007D006125DCEE490006AF0E490006B08
:103C2500F090006BE0FFC394084003023D4890000C
:103C350069E0705AA3E0FE90006CE0FCA3E09012EE
:103C45008B75F08212341CEC75F082A42583F58304
:103C5500E5822EF582E43583F583E493FD3395E023
:103C6500FC74807E00A807088006CEA2E713CE1359
:103C7500D8F8FFEE5CFEEF5D4E60059000628003B4
:103C8500900064E0FEA3E0FF125FE6023D3F900076
:103C950062E0FFA3E090009ECFF0A3EFF090006AF2
:103CA500E0FF90006CE0FCA3E090128B75F08212AF
:103CB500341CEC75F082A42583F583E5822FF5820B
:103CC500E43583F583E493FD3395E0FC90006BE0E8
:103CD500FF74807E00A807088006CEA2E713CE13E6
:103CE500D8F8FFEE5CFEEF5D4E601190005EE0FEE1
:103CF500A3E0FFA3E0FCA3E0FD125EE690005FE019
:103D050004F0700690005EE004F0900070E0FEA301
:103D1500E0FFC390005FE09FFD90005EE09EFCED3C
:103D250064204C7015EEF0A3EFF0900061E004F014
:103D35007011900060E004F0800990006BE004F0E1
:103D4500023C2690006AE004F0E0C3948050030230
:103D55003C2190006DE004F0700690006CE004F0EA
:103D6500023B7D9000A3E024FFFB9000A2E034FF1E
:103D7500FA9000A5E024FFFE9000A4E034FF900037
:0D3D850078F0A3CEF0E4FDFCFFFE025DCE61
:10342800900050ECF0A3EDF0A3EAF0A3EBF09000CD
:063438004EEEF0A3EFF0E0
:10343E0090005BEEF0A3EFF0E4A3F0900056E0FBFB
:10344E00A3E0FAA3E0F91231BD70030236C8900072
:10345E005DE0600302358A900059E0FFC313FDC39F
:10346E009000A3E09DFD9000A2E09400FCD390009C
:10347E004FE09D90004EE09C40030236C8C3900082
:10348E00A5E09FFF9000A4E09400FE900050E0FCA9
:10349E00A3E0FDD39FEC9E40030236C8900056E099
:1034AE00FBA3E0FAA3E0F91231BDFFD394804008EC
:1034BE0090005D7401F08083EFB40D2E900059E002
:1034CE00FF900051E02FF0900050E03400F090009B
:1034DE005BE0FFA3E090004ECFF0A3EFF09000571B
:1034EE00E475F00112325802357D900059E0D39404
:1034FE001090004EE0FEA3E0FF402F900054E0FB42
:10350E00A3E0900064CBF0A3EBF0900056E0FBA399
:10351E00E0FAA3E0F91231BD900066F0A374101228
:10352E0041EE90004FE02408803DA3E0FCA3E0FDB7
:10353E00900054E0FBA3E0900064CBF0A3EBF0907E
:10354E000056E0FBA3E0FAA3E0F91231BD9000664D
:10355E00F0900059E09000671241EE900059E0C3E0
:10356E0013FF90004FE02FF090004EE03400F090EB
:10357E000057E475F001123258023449900059E0B8
:10358E00F9FF7E00C39000A3E09FFD9000A2E09E95
:10359E00FCD390004FE09D90004EE09C400302361D
:1035AE00C8C39000A5E09FFF9000A4E09EFE90008F
:1035BE0050E0FCA3E0FDD39FEC9E40030236C8E42E
:1035CE0090005DF0E9B4204290004EE0FEA3E0FFD3
:1035DE00900054E0FBA3E0900064CBF0A3EBF090DE
:1035EE000056E0F9A3E0FAA3E0900066C9F0A3EA62
:1035FE00F0A3E9F090005AE0900069F0900052E0DC
:10360E00FAA3E0FB123B4F0236A9900059E0641872
:10361E0090004E7044E0FEA3E0FFA3E0FCA3E0FDAB
:10362E00900054E0FBA3E0900064CBF0A3EBF0908D
:10363E000056E0F9A3E0FAA3E0900066C9F0A3EA11
:10364E00F0A3E9F090005AE0900069F0900052E08B
:10365E00FAA3E0FB12390C8042E0FEA3E0FFA3E0E8
:10366E00FCA3E0FD900054E0FBA3E0900064CBF0DF
:10367E00A3EBF0900056E0F9A3E0FAA3E090006609
:10368E00C9F0A3EAF0A3E9F090005AE0900069F0C7
:10369E00900052E0FAA3E0FB1236C9900057E47591
:1036AE00F002123258900059E0FF90004FE02FF0D8
:0A36BE0090004EE03400F0023449A1
:0136C80022DF
:105A9400900041EEF0A3EFF0A3ECF0A3EDF0A3EA45
:045AA400F0A3EBF090
:105AA800900049E0FBA3E0FAA3E0F9126065EF7803
:105AB80003C333CE33CED8F9FFC39000A3E09FFFD2
:105AC8009000A2E09EC313FEEF13FF900042E02F68
:105AD800FF900041E03EFE900043E0FCA3E0FD9013
:105AE8000047E0FBA3E0900054CBF0A3EBF090005C
:105AF80049E0F9A3E0FAA3E0900056C9F0A3EAF060
:105B0800A3E9F090004CE0900059F090004DE0902F
:0E5B1800005AF0900045E0FAA3E0FB023428AA
:1056030090003DEEF0A3EFF0900041EBF0A3EAF041
:0B561300A3E9F090003FECF0A3EDF0E5
:10561E0090003DE0FAA3E0FFAE02C006C0072427CB
:10562E00FBE43AFAA3E0FEA3E02427FFE43E900059
:10563E0078F0A3EFF0D007D006125DCEE4900044D0
:10564E00F0A3F0900045E025E0FF900044E033FE2B
:10565E00900041E0FBA3E0FAA3E0F98F828E831263
:10566E0031D6900047F0E92FF9EA3EFA9000011288
:10567E0031D6900046F0FEA3E0FDEDFF125FE690FE
:10568E000045E004F07006900044E004F0C3900082
:10569E0045E09440900044E06480948640A59000DC
:1056AE00A3E024FFFB9000A2E034FFFA9000A5E0F7
:1056BE0024FFFE9000A4E034FF900078F0A3CEF01B
:0856CE00E4FDFCFFFE025DCECD
:105F0E00E4FDFCC3ED9FEE6480F8EC6480985015C0
:105F1E00E4FBFA0BBB00010ABA03F8BBE8F50DBDB2
:055F2E0000010C80DE03
:015F3300224B
:105F3400E4FDFCC3ED9FEE6480F8EC64809850159A
:105F4400E4FBFA0BBB00010AEB64014A70F50DBDDA
:055F540000010C80DEDD
:015F59002225
:03000000025B267A
:0C5B2600787FE4F6D8FD758107025B6D06
:105E4F0056583A0056793A004348583A0043485951
:105E5F003A0041646A757374204F4B2100546F757B
:105E6F00636820416E79776865726520546F2043AF
:085E7F006F6E74696E75650019
:105EC7004200BB2C734200BD1E134200AF0F284295
:045ED70000B100EA2C
:0660A700A2C0E433FF2259
:09608D00D2B7D2B6D2B4D2B622C9
:10601C00E4FEC2B6EF25E0FF92B4C2B6000000D297
:09602C00B60000000EEEB408EB12
:016035002248
:105FA400E4FDFFFEEF25E0FFEE33FED2B600000075
:105FB400C2B600000030B504EF4401FF0DEDB40C8F
:015FC400E3F9
:015FC50022B9
:10604E00C2B712601CD2B600000000C2B60000003B
:06605E0000125FA4D2B79E
:016064002219
:024B2400A907DF
:104B2600E490009AF0A3F0FBFAAF0112604EAC06D7
:104B3600AD07EB25E0FFEA33FE747C2FF5827400A7
:104B46003EF583ECF0A3EDF00BBB00010AEB640F1E
:104B56004A70D6E4FAFBEB2401FEE43A90007AF0C0
:104B6600A3CEF090007AE0FEA3E0FFC3940FEE948C
:104B7600004003024C20EF25E0FFEE33FE747C2F4D
:104B8600F58274003EF583E0FCA3E0FDEB25E0FF33
:104B9600EA33FE747C2FF58274003EF583E0FEA3B3
:104BA600E0FFD39DEE9C405E90009CEEF0A3EFF0FC
:104BB60090007BE025E0FF90007AE033FE747C2FC6
:104BC600F58274003EF583E0FCA3E0FDEB25E0FFF3
:104BD600EA33FE747C2FF58274003EF583ECF0A375
:104BE600EDF090009CE0FCA3E0FD90007BE025E06A
:104BF600FF90007AE033FE747C2FF58274003EF558
:104C060083ECF0A3EDF090007BE004F06003024B30
:104C16006990007AE004F0024B690BBB00010AEBD5
:104C2600640E4A6003024B5CE490009AF0A3F0FA2B
:104C36007B05EB25E0FFEA33FE747C2FF5827400DA
:104C46003EF583E0FEA3E0FF90009BE02FF090008E
:104C56009AE03EF00BBB00010AEB640A4A70D3905F
:104C6600009AE0FEA3E0FF7C007D05123203A3EE6E
:044C7600F0A3EFF0C8
:014C7A002217
:0B5D22009000E4EBF0A3EAF0A3E9F02E
:105D2D007FD0124B249000EAEEF0A3EFF07F90129B
:105D3D004B24C39000EBE094649000EAE0940040A3
:105D4D0008EF9464EE940050037F00229000EAE087
:105D5D00F9A3E0FD9000E4E0FBA3E0FAA3E0C98D18
:105D6D00F01232849000E7E0FBA3E0FAA3E0F9EE35
:075D7D008FF01232847F0158
:015D840022FC
:0B4EEF009000BFEBF0A3EAF0A3E9F095
:104EFA009000E77401F0A37400F0A374C7F07B017B
:104F0A007A0079C5125D22EF7002FF229000E774E1
:104F1A0001F0A37400F0A374CBF07B017A0079C985
:104F2A00125D22EF7002FF229000C5E0FEA3E0FFAF
:104F3A009000C9E0FCA3E0FDD39FEC9E500EED2447
:104F4A0014FDE43CFCC3EF9DEE9C402A9000C9E0AE
:104F5A00FEA3E0FF9000C5E0FCA3E0FDD39FEC9E1A
:104F6A00400302501DED2414FDE43CFCC3EF9DEE0A
:104F7A009C400302501D9000C7E0FEA3E0FF900092
:104F8A00CBE0FCA3E0FDD39FEC9E500EED2414FD74
:104F9A00E43CFCC3EF9DEE9C40249000CBE0FEA3D2
:104FAA00E0FF9000C7E0FCA3E0FDD39FEC9E5063B6
:104FBA00ED2414FDE43CFCC3EF9DEE9C505590009B
:104FCA00C9E0FEA3E0FF9000C6E02FFF9000C5E015
:104FDA003EC313F9EF13FF9000BFE0FBA3E0FAA36F
:104FEA00E0C98FF01232849000CBE0FEA3E0FF907C
:104FFA0000C8E02FFF9000C7E03EC313F9EF13FF8C
:10500A009000C2E0FBA3E0FAA3E0C98FF012328459
:05501A007F01227F0070
:01501F00226E
:105C3300E49000F7F09000F7E0706A9000C27401FE
:105C4300F0A37400F0A374B9F07B017A0079B71262
:105C53004EEFEF60E67F0A7E00125F0E9000C27483
:105C630001F0A37400F0A374FAF07B017A0079F8D1
:105C7300124EEFEF60E69000F8E0FEA3E0FF900025
:105C8300B7E0B506B0A3E0B507AB9000FAE0FEA31A
:105C9300E0FF9000B9E06E7003A3E06F709790008F
:0A5CA300F704F080909000F7E0FF96
:015CAD0022D4
:105020009000FCEEF0A3EFF0A3ECF0A3EDF0900005
:105030009E74F8F0A3E4F09000FCE0FAA3E0FB24F7
:10504000F4FFEA34FFFEC007EB240DFBE43AFAA3B9
:10505000E0FFA3E090004CCFF0A3EFF0D0071245A3
:10506000FC9000FCE0FAA3E0FBFFAE02C006C00724
:105070009000FFE024F4FD9000FEE034FFFCE0FE31
:10508000A3E0240DFFE43E90004CF0A3EFF0D00726
:10509000D0061245FC9000FDE02401FF9000FCE0EA
:1050A0003400FE9000FFE02401FD9000FEE034009B
:1050B000FC125EE69000FDE024FFFF9000FCE0346F
:1050C000FFFE9000FFE02401FD9000FEE03400FCB4
:1050D000125EE69000FDE02401FF9000FCE0340049
:1050E000FE9000FFE024FFFD9000FEE034FFFC1284
:1050F0005EE69000FDE024FFFF9000FCE034FFFE40
:105100009000FFE024FFFD9000FEE034FFFC125E03
:10511000E69000FCE0FEA3E0FFA3E0FCA3E0FD902E
:10512000009EE0FAA3E0FB900044E4F0A37406F0D4
:08513000E4A3F0A3F002440621
:105CAE00900100EEF0A3EFF0A3ECF0A3EDF0AF0344
:105CBE0090009EEAF0A3EFF0900100E0FEA3E0FF5B
:105CCE00125EE6900101E02401FF900100E0340035
:105CDE00FE900102E0FCA3E0FD125EE6900100E002
:105CEE00FEA3E0FF900103E02401FD900102E034E9
:105CFE0000FC125EE6900101E02401FF900100E03D
:105D0E003400FE900103E02401FD900102E0340016
:045D1E00FC025EE63F
:104DB800E4900108F07B019000C204F0A37400F0B5
:104DC800A374B9F07A0079B7124EEFEF7003024E70
:104DD800B59001087401F09000AFE0FEA3E0FFD3A6
:104DE8009000B8E09F9000B7E09E400BAB07AA0682
:104DF800E0FEA3E0FF80139000B7E0FEA3E0FBAA6B
:104E0800069000AFE0FEA3E0FFC3EF9BFFEE9AFE23
:104E1800E49400FDE49400FCE47BE87A03F9F812DA
:104E280032A3C006C0079000BBE0FEA3E0FBAA06C1
:104E3800E4F9F8D007D00612332E9000B3EEF0A3B1
:104E4800EFF09000B1E0FEA3E0FFD39000BAE09F3E
:104E58009000B9E09E400BAB07AA06E0FEA3E0FF76
:104E680080139000B9E0FEA3E0FBAA069000B1E031
:104E7800FEA3E0FFC3EF9BFFEE9AFEE49400FDE47F
:104E88009400FCE47BE87A03F9F81232A3C006C068
:104E9800079000BDE0FEA3E0FBAA06E4F9F8D007FE
:104EA800D00612332E9000B5EEF0A3EFF09000B3C9
:104EB800E0FEA3E0FFC39000A3E09FFF9000A2E004
:104EC8009E9000B3F0A3EFF0A3E0FEA3E0FFC39031
:104ED80000A5E09FFF9000A4E09E9000B5F0A3EF2E
:064EE800F0900108E0FF5C
:014EEE0022A1
:10233200E490003CF0F090009EF0A3741FF074FF54
:102342009000A0F0A3F0FFFE125BB290009E74F822
:10235200F0A3E4022AD620C0FD125C33EF60429063
:1023620000B7E0FEA3E0FFE4FCFD90003CE0FB755B
:10237200F008A4241CF582E43400F5831233DF90C4
:1023820000B9E0FEA3E0FFE4FCFDEB75F008A42435
:1023920020F582E43400F5831233DF90003CE00440
:1023A200F090003CE024FE602914604514606B2428
:1023B2000370A374FFFFFE125BB230C0FD9000A356
:1023C200E024CDFF9000A2E034FFFE7D327C0002CB
:1023D2002AE674FFFFFE125BB230C0FD9000A5E05A
:1023E20024CDFD9000A4E034FFFC7F327E00022A5F
:1023F200E674FFFFFE125BB230C0FD9000A3E02442
:10240200CDFF9000A2E034FFFE9000A5E024CDFDB8
:102412009000A4E034FFFC022AE674FFFFFE125B88
:10242200B230C0FD90001CE0FCA3E0FDA3E0FEA3DF
:10243200E0FF900024E0F8A3E0F9A3E0FAA3E0FBB8
:10244200D31233CE403490001CE0F8A3E0F9A3E0AD
:10245200FAA3E0FB900024E0FCA3E0FDA3E0FEA3CE
:10246200E09BFFEE9AFEED99FDEC98FCEF2401FF54
:10247200E43EFEE43DFDE43C8036900024E0F8A317
:10248200E0F9A3E0FAA3E0FB90001CE0FCA3E0FD6E
:10249200A3E0FEA3E0C39BFFEE9AFEED99FDEC984C
:1024A200FCEF24FFFFEE34FFFEED34FFFDEC34FFC2
:1024B200FCE47BE87A03F9F81232A3C006C0079065
:1024C20000A3E0249CFF9000A2E034FFAB07FAE4F3
:1024D200F9F8D007D00612332EE41230FE90000035
:1024E2001233DF90001CE0FCA3E0FDA3E0FEA3E0BA
:1024F200FF900024E0F8A3E0F9A3E0FAA3E0FBD305
:102502001233CEE4FFFE7D487C42900000E0F8A347
:10251200E0F9A3E0FAA3E0FB4034122EDFE4FBFA79
:10252200797A7844122FE8C004C005C006C007902B
:10253200001CE0FCA3E0FDA3E0FEA3E0FFE41230F8
:10254200FED003D002D001D000122DEA8032122E2A
:10255200DFE4FBFA797A7844122FE8C004C005C0A0
:1025620006C00790001CE0FCA3E0FDA3E0FEA3E090
:10257200FFE41230FED003D002D001D000122DEEC3
:1025820012313C900010EEF0A3EFF0900020E0FC3E
:10259200A3E0FDA3E0FEA3E0FF900030E0F8A3E09B
:1025A200F9A3E0FAA3E0FBD31233CE401D90002042
:1025B200E0F8A3E0F9A3E0FAA3E0FB900030E0FC2E
:1025C200A3E0FDA3E0FEA3E0801C900030E0F8A3AE
:1025D200E0F9A3E0FAA3E0FB900020E0FCA3E0FD19
:1025E200A3E0FEA3E0C39BFFEE9AFEED99FDEC98FB
:1025F200FCEF24FFFFEE34FFFEED34FFFDEC34FF71
:10260200FCE47BE87A03F9F81232A3C006C0079013
:1026120000A5E0249CFF9000A4E034FFAB07FAE49D
:10262200F9F8D007D00612332EE41230FE900008DB
:102632001233DF900020E0FCA3E0FDA3E0FEA3E064
:10264200FF900030E0F8A3E0F9A3E0FAA3E0FBD3A7
:102652001233CEE4FFFE7D487C42900008E0F8A3EE
:10266200E0F9A3E0FAA3E0FB4034122EDFE4FBFA28
:10267200797A7844122FE8C004C005C006C00790DA
:102682000020E0FCA3E0FDA3E0FEA3E0FFE41230A3
:10269200FED003D002D001D000122DEA8032122ED9
:1026A200DFE4FBFA797A7844122FE8C004C005C04F
:1026B20006C007900020E0FCA3E0FDA3E0FEA3E03B
:1026C200FFE41230FED003D002D001D000122DEE72
:1026D20012313C900014EEF0A3EFF090002CE0FCDD
:1026E200A3E0FDA3E0FEA3E0FF900034E0F8A3E046
:1026F200F9A3E0FAA3E0FBD31233CE403490002CCE
:10270200E0F8A3E0F9A3E0FAA3E0FB900034E0FCD8
:10271200A3E0FDA3E0FEA3E09BFFEE9AFEED99FD90
:10272200EC98FCEF2401FFE43EFEE43DFDE43C8036
:1027320036900034E0F8A3E0F9A3E0FAA3E0FB90BE
:10274200002CE0FCA3E0FDA3E0FEA3E0C39BFFEEB0
:102752009AFEED99FDEC98FCEF24FFFFEE34FFFEAC
:10276200ED34FFFDEC34FFFCE47BE87A03F9F81268
:1027720032A3C006C0079000A3E0249CFF9000A2F1
:10278200E034FFAB07FAE4F9F8D007D00612332E93
:10279200E41230FE9000041233DF90002CE0FCA320
:1027A200E0FDA3E0FEA3E0FF900034E0F8A3E0F92F
:1027B200A3E0FAA3E0FBD31233CEE4FFFE7D487C14
:1027C20042900004E0F8A3E0F9A3E0FAA3E0FB40A2
:1027D20034122EDFE4FBFA797A7844122FE8C0042F
:1027E200C005C006C00790002CE0FCA3E0FDA3E0FA
:1027F200FEA3E0FFE41230FED003D002D001D000ED
:10280200122DEA8032122EDFE4FBFA797A78441232
:102812002FE8C004C005C006C00790002CE0FCA34E
:10282200E0FDA3E0FEA3E0FFE41230FED003D002FD
:10283200D001D000122DEE12313C900012EEF0A326
:10284200EFF0900028E0FCA3E0FDA3E0FEA3E0FF90
:10285200900038E0F8A3E0F9A3E0FAA3E0FBD3127A
:1028620033CE401D900028E0F8A3E0F9A3E0FAA3DC
:10287200E0FB900038E0FCA3E0FDA3E0FEA3E080D3
:102882001C900038E0F8A3E0F9A3E0FAA3E0FB9083
:102892000028E0FCA3E0FDA3E0FEA3E0C39BFFEE63
:1028A2009AFEED99FDEC98FCEF24FFFFEE34FFFE5B
:1028B200ED34FFFDEC34FFFCE47BE87A03F9F81217
:1028C20032A3C006C0079000A5E0249CFF9000A49C
:1028D200E034FFAB07FAE4F9F8D007D00612332E42
:1028E200E41230FE90000C1233DF900028E0FCA3CB
:1028F200E0FDA3E0FEA3E0FF900038E0F8A3E0F9DA
:10290200A3E0FAA3E0FBD31233CEE4FFFE7D487CC2
:102912004290000CE0F8A3E0F9A3E0FAA3E0FB4048
:1029220034122EDFE4FBFA797A7844122FE8C004DD
:10293200C005C006C007900028E0FCA3E0FDA3E0AC
:10294200FEA3E0FFE41230FED003D002D001D0009B
:10295200122DEA8032122EDFE4FBFA797A784412E1
:102962002FE8C004C005C006C007900028E0FCA301
:10297200E0FDA3E0FEA3E0FFE41230FED003D002AC
:10298200D001D000122DEE12313C900016EEF0A3D1
:10299200EFF0900004E0FCA3E0FDA3E0FEA3E0FF63
:1029A200900000E0F8A3E0F9A3E0FAA3E0FB123004
:1029B2008560324030E4FFFE7D7A7C44900004E082
:1029C200F8A3E0F9A3E0FAA3E0FB122DEE900000D9
:1029D200E0F8A3E0F9A3E0FAA3E0FB12308560057A
:1029E2004003022AD2900004E0FCA3E0FDA3E0FE33
:1029F200A3E0FF900000E0F8A3E0F9A3E0FAA3E06F
:102A0200FB123085502EE4FFFE7D7A7CC4900004D8
:102A1200E0F8A3E0F9A3E0FAA3E0FB122DEE9000A8
:102A220000E0F8A3E0F9A3E0FAA3E0FB123085503E
:102A320003022AD290000CE0FCA3E0FDA3E0FEA377
:102A4200E0FF900008E0F8A3E0F9A3E0FAA3E0FBBE
:102A5200123085602F402DE4FFFE7D7A7C44900089
:102A62000CE0F8A3E0F9A3E0FAA3E0FB122DEE904C
:102A72000008E0F8A3E0F9A3E0FAA3E0FB12308536
:102A82006002504C90000CE0FCA3E0FDA3E0FEA32A
:102A9200E0FF900008E0F8A3E0F9A3E0FAA3E0FB6E
:102AA2001230855045E4FFFE7D7A7CC490000CE034
:102AB200F8A3E0F9A3E0FAA3E0FB122DEE900008E0
:102AC200E0F8A3E0F9A3E0FAA3E0FB123085501A84
:102AD200E490003CF074FFFFFE125BB27D327C009A
:102AE2007F327E00125020022358900004E0FCA3A3
:102AF200E0FDA3E0FEA3E0FF900000E0F8A3E0F910
:102B0200A3E0FAA3E0FB122DEEE4FBFAF9784012FF
:102B12002FE812313C9000BBEEF0A3EFF090000CD6
:102B2200E0FCA3E0FDA3E0FEA3E0FF900008E0F8D4
:102B3200A3E0F9A3E0FAA3E0FB122DEEE4FBFAF91D
:102B42007840122FE812313C9000BDEEF0A3EFF076
:102B5200900012E0FEA3E0FF900011E02FFF900032
:102B620010E03EC313FEEF13FF9000AFEEF0A3EFB1
:102B7200F0900016E0FEA3E0FF900015E02FFF901A
:102B82000014E03EC313FEEF13FF9000B1EEF0A37A
:102B9200EFF074FFFFFE125BB2E490009EF0A3F030
:102BA2009000A0F0A3741FF0900018E4F0A3743218
:102BB200F0A3E4F0A37496F090004274FFF0A374C3
:102BC2005EF0A3744FF0A37401F07B107D967C003D
:102BD2007F327E00125868900019E02428F090009D
:102BE20018E03400F09000BBE0FEA3E0FFE4FCFD3F
:102BF2009000D11233DF9000D57406F0A37410F068
:102C020090001AE0FCA3E0FD900018E0FEA3E0FFB4
:102C1200125138900018E4F0A37432F090001BE0D7
:102C22002414F090001AE03400F0E0FCA3E0FD90E0
:102C3200004274FFF0A3745EF0A37453F0A3740116
:102C4200F07B107F327E00125868900019E0242831
:102C5200F0900018E03400F09000BDE0FEA3E0FF29
:102C6200E4FCFD9000D11233DF9000D57406F0A38E
:102C72007410F090001AE0FCA3E0FD900018E0FE52
:102C8200A3E0FF125138900018E4F0A37432F090E0
:102C9200001BE02414F090001AE03400F0E0FCA3E2
:102CA200E0FD90004274FFF0A3745EF0A37457F04D
:102CB200A37401F07B107F327E00125868900019D5
:102CC200E02428F0900018E03400F09000AFE0FE1D
:102CD200A3E0FFE4FCFD9000D11233DF9000D57435
:102CE20006F0A37410F090001AE0FCA3E0FD90003F
:102CF20018E0FEA3E0FF125138900018E4F0A3742C
:102D020032F090001BE02414F090001AE03400F03E
:102D1200E0FCA3E0FD90004274FFF0A3745EF0A318
:102D2200745CF0A37401F07B107F327E001258684D
:102D3200900019E02428F0900018E03400F0900090
:102D4200B1E0FEA3E0FFE4FCFD9000D11233DF907E
:102D520000D57406F0A37410F090001AE0FCA3E012
:102D6200FD900018E0FEA3E0FF125138900018E435
:102D7200F0A3741EF090001BE0241EF090001AE0F5
:102D82003400F0E0FCA3E0FD90004274FFF0A37475
:102D92005EF0A37461F0A37401F07B107F1E7E00CD
:102DA200125868900018E4F0A3741EF090001BE023
:102DB200241EF090001AE03400F0E0FCA3E0FD9045
:102DC200004274FFF0A3745EF0A3746CF0A374016C
:102DD200F07B107F1E7E00125868125C3374FFFF76
:042DE200FE125BB2D0
:012DE60022CA
:0A5EDB0042009E00004200A0FFFFFD
:06607A009000ABA3E0FF63
:0D608000C292C2938FA0C291D291D29322FE
:0B603600126080FF1260411260410FF9
:0D604100D292C2938FA0C291D291D293222D
:105FE600AD07AC06D292C293ECFF8FA0C291D291BC
:0B5FF600AF058FA0C291D291D2932280
:08609F00126080AF05026041B0
:096096009000A9A3E0FF02608064
:085BB200900104EEF0A3EFF0F6
:105BBA009000A3E024FFFB9000A2E034FFFA9000DB
:105BCA00A5E024FFFE9000A4E034FF900078F0A343
:105BDA00CEF0E4FDFCFFFE125DCEE4900106F0A3D8
:105BEA00F09000A2E0FEA3E0FFC3900107E09F90BF
:105BFA000106E09E5032E4FBFAD39000A5E09B90A8
:105C0A0000A4E09A4012900104E0FEA3E0FF125FB4
:105C1A00E60BBB00010A80E1900107E004F070C1C5
:085C2A00900106E004F080B9CE
:015C3200224F
:105EE600AB07AA068D828C83C006C007AE83AF823D
:105EF600900078EEF0A3EFF0D007D006125DCE90BA
:085F0600009EA3E0FF026041D0
:10600100D2B37F327E00125F0EC2B37F327E0012A6
:0B6011005F0ED2B37F327E00025F0EF4
:10551F00D2901260017F111260807F147E00125FA3
:10552F000E7FD01260807F071260417F4212604170
:10553F007F181260417FD1126080E4FF1260417FBB
:10554F00071260417F101260417FD21260807F018D
:10555F0012603D7FC01260807F101260417F3B124E
:10556F006041FF1260417F021260417F1112604162
:10557F007FC51260807F031260417FC8126080FF79
:10558F001260417F321260417F361260417F4512B7
:10559F0060417F061260417F161260417F371260B3
:1055AF00417F751260417F771260417F54126041D5
:1055BF007F0C126041FF1260417F361260807F0ABC
:1055CF001260417F3A1260807F551260417F2A122C
:1055DF0060367F3F1260417F2B1260367FE0126092
:1055EF00417F78FE125F0E7F291260807F2C126040
:0455FF0080025E15B3
:105DCE00900072EEF0A3EFF012607A900072E0FF96
:105DDE00126041A3E0FF126041EAFF126041AF037F
:105DEE001260419000ADA3E0FF126080ECFF1260E4
:105DFE0041AF05126041900078E0FF126041A3E0D0
:075E0E00FF126041026096E3
:105F7F00AB07AA0612607AEAFF126041AF03126004
:105F8F0041A3A3E0FF126080ECFF126041AF051246
:055F9F00604102609664
:105E15009000A9E4F0A3742CF0E49000A8F09000A1
:105E2500A204F0A37440F0A37401F0A374E0F09011
:105E350000ABE4F0A3742AF0A3E4F0A3742BF07D87
:0A5E45000A7C007F367E0002609F99
:102DE7000231A8E86480F8E933E83360110460F041
