:1001F40053B1FB43B2041200037F007EF812017373
:100204007FE87E031202E77FE87E031202E77FE0C5
:100214007E071201737FE87E031202E77FE87E0304
:100224001202E77F1F7E001201737FE87E03120231
:0A023400E77FE87E031202E780BFB7
:1002E700E4FDFCC3ED9FEE6480F8EC648098501544
:1002F700E4FBFA0BBB00010ABA03F8BBE8F50DBD36
:0503070000010C80DE86
:01030C0022CE
:10030D00E4FDFCC3ED9FEE6480F8EC64809850151D
:10031D00E4FBFA0BBB00010AEB64014A70F50DBD5D
:05032D0000010C80DE60
:0103320022A8
:030000000200E714
:0C00E700787FE4F6D8FD75810702012E39
:0A03B9004200000000420002FFFFB6
:0603A60090000DA3E0FF32
:0D03AC00C292C2938FA0C291D291D293222F
:0B038E001203ACFF1203991203990F39
:0D039900D292C2938FA0C291D291D2932232
:10035800AD07AC06D292C293ECFF8FA0C291D291A6
:0B036800AF058FA0C291D291D293226A
:0803CD001203ACAF0502039915
:0903C40090000BA3E0FF0203AC62
:08017300900011EEF0A3EFF083
:10017B00900005E024FFFB900004E034FFFA9000B0
:10018B0007E024FFFE900006E034FF90001BF0A375
:10019B00CEF0E4FDFCFFFE12023EE4900013F0A350
:1001AB00F0900004E0FEA3E0FFC3900014E09F90EA
:1001BB000013E09E5032E4FBFAD3900007E09B90D3
:1001CB000006E09A4012900011E0FEA3E0FF12033C
:1001DB00580BBB00010A80E1900014E004F070C1E1
:0801EB00900013E004F080B95C
:0101F30022E9
:1002BF00AB07AA068D828C83C006C007AE83AF82C0
:1002CF0090001BEEF0A3EFF0D007D00612023E9085
:0802DF000000A3E0FF020399F7
:10037300D2B37F327E001202E7C2B37F327E001215
:0B03830002E7D2B37F327E000202E7E7
:10000300D2901203737F111203AC7F147E0012028D
:10001300E77FD01203AC7F071203997F4212039943
:100023007F181203997FD11203ACE4FF1203997F67
:10003300071203997F101203997FD21203AC7F0139
:100043001203957FC01203AC7F101203997F3B12FA
:100053000399FF1203997F021203997F11120399E7
:100063007FC51203AC7F031203997FC81203ACFF51
:100073001203997F321203997F361203997F451237
:1000830003997F061203997F161203997F37120390
:10009300997F751203997F771203997F54120399FD
:1000A3007F0C120399FF1203997F361203AC7F0A68
:1000B3001203997F3A1203AC7F551203997F2A12D8
:1000C300038E7F3F1203997F2B12038E7FE012036F
:1000D300997F78FE1202E77F291203AC7F2C12036B
:0400E300AC020285E4
:10023E00900015EEF0A3EFF01203A6900015E0FF6C
:10024E00120399A3E0FF120399EAFF120399AF0379
:10025E0012039990000FA3E0FF1203ACECFF120300
:10026E0099AF0512039990001BE0FF120399A3E0CA
:07027E00FF1203990203C403
:10033300AB07AA061203A6EAFF120399AF0312033F
:1003430099A3A3E0FF1203ACECFF120399AF0512CC
:0503530003990203C440
:1002850090000BE4F0A3742CF0E490000AF09000C9
:100295000404F0A37440F0A37401F0A374E0F0909B
:1002A500000DE4F0A3742AF0A3E4F0A3742BF07D11
:0A02B5000A7C007F367E000203CDB4
:1000F3000201F4E493A3F8E493A34003F68001F22E
:1001030008DFF48029E493A3F85407240CC8C3330D
:10011300C4540F4420C8834004F456800146F6DFDC
:10012300E4800B01020408102040809003B9E47EB0
:10013300019360BCA3FF543F30E509541FFEE493D1
:10014300A360010ECF54C025E060A840B8E493A398
:10015300FAE493A3F8E493A3C8C582C8CAC583CAC3
:10016300F0A3C8C582C8CAC583CADFE9DEE780BE7B
:0103C3000039
:00000001FF
