:020000040800F2
:10000000F80600203931000841310008433100086A
:100010004531000847310008493100080000000060
:100020000000000000000000000000004B3100084C
:100030004D310008000000004F3100085131000828
:100040005331000853310008533100085331000880
:100050005331000853310008533100085331000870
:100060005331000853310008533100085331000860
:100070005331000853310008533100085331000850
:100080005331000853310008533100085331000840
:100090005331000853310008533100085331000830
:1000A0005331000853310008533100085331000820
:1000B0005331000853310008533100085331000810
:1000C0005331000853310008533100085331000800
:1000D00053310008533100085331000853310008F0
:1000E00053310008533100085331000800F002F882
:1000F00000F03AF80AA090E8000C82448344AAF188
:100100000107DA4501D100F02FF8AFF2090EBAE885
:100110000F0013F0010F18BFFB1A43F0010318473B
:10012000C0640000E0640000103A24BF78C878C1C1
:10013000FAD8520724BF30C830C144BF04680C60ED
:10014000704700000023002400250026103A28BF35
:1001500078C1FBD8520728BF30C148BF0B60704739
:100160001FB51FBD10B510BD03F02AFC1146FFF7E7
:10017000F7FF00F020F803F048FC03B4FFF7F2FFAC
:1001800003BC03F049FC0000DE201749086040F67C
:1001900066701649086040F60D701549086040F217
:1001A000551014490860EF201349086040F23F10D1
:1001B00012490860704700BF01F039FB482001F088
:1001C00071FA01F04FFD0DE000F05DF800F099F8D4
:1001D00000F040F900F002FA00F0E6FA00F024FB2B
:1001E00000F05FFBF0E700000000002004000020AA
:1001F000080000200C000020100000201400002047
:100200003EB504461F200090FE48028814230021BA
:10021000084600F053FD1F200090FA4843880288EA
:100220004088143881B2002000F048FD4FF6FF707E
:10023000F5490880012010211F234FF6FF72CDE9F8
:10024000004102900221002001F0DAF90120102182
:10025000EEA2CDE900210290EA484088123881B22E
:100260001F234FF6FF72002001F0CAF90020009012
:10027000E4484088143883B2E24802881421002000
:1002800000F01CFD3EBD0EB5E8A0FFF7B9FF012050
:100290001021ECA21F23CDE900210290DA021E21D9
:1002A000002001F0ADF901201021E2A21F23CDE9C9
:1002B00000210290DA023C21002001F0A1F9012086
:1002C0001021E3A21F23CDE9002102904FF6E07236
:1002D0005A21002001F094F901201021E2A21F23ED
:1002E000CDE9002102901A467821002001F088F91A
:1002F00040F2DC5001F0F0F940F2DC5001F0ECF992
:100300000EBD0EB5DFA0FFF77BFF4FF6FF7000902C
:10031000BC484088143883B2BA48028814210020AF
:1003200000F0CCFC01201021DBA2CDE900210290DD
:10033000B4490988323988B24FF6E0731F221E2172
:1003400001F0CCF84FF4FA7001F0C6F900200090EB
:10035000AC484088143883B2AA480288142100208F
:1003600000F0ACFC01201021CDA2CDE900210290CB
:10037000A4490988323988B24FF6E0731F221E2142
:1003800001F0ACF84FF4FA7001F0A6F94FF47840A0
:1003900000909C484088143883B29A4802881421FF
:1003A000002000F08BFC01201021BFA2CDE900212C
:1003B000029094490988323988B24FF6E0731F22BF
:1003C0001E2101F08BF84FF4FA7001F085F94FF41B
:1003D000FC6000908B484088143883B289480288BA
:1003E0001421002000F06AFC01201021AFA2CDE909
:1003F0000021029083490988323988B24FF6E073B0
:100400001F221E2101F06AF84FF4FA7001F064F91E
:100410001F2000907B484088143883B279480288B6
:100420001421002000F04AFC01201021A1A2CDE9F6
:100430000021029073490988323988B24FF6E0737F
:100440004FF6FF721E2101F049F84FF4FA7001F0E7
:1004500043F90EBD2DE9F843002498A0FFF7D0FE24
:100460004FF6FF70009067484088143883B26548A3
:1004700002881421002000F021FC00BF48E0DFF8D2
:1004800084C1BCF8025005EBD57C4FEA6C0CACF192
:10049000500CC4EB0419CC440CF13C0C1FFA8CF347
:1004A000DFF860C1BCF8006006EBD67C4FEA6C0C4C
:1004B000ACF1500CC4EB0419CC440CF13C0C1FFA09
:1004C0008CF2DFF840C1BCF8027007EBD77C4FEA32
:1004D0006C0CACF1500CC4EB0419CC441FFA8CF139
:1004E000DFF820C1BCF8008008EBD87C4FEA6C0C28
:1004F000ACF1500CC4EB0419CC441FFA8CF000F0A2
:1005000086FC744830F814003F490880601CC4B26F
:10051000052CB4DB40F2DC5001F0DEF84FF6FF7042
:10052000009038484088143883B236480288142135
:10053000002000F0C3FB002448E0DFF8C8C0BCF88E
:10054000027007EBD77C4FEA6C0CACF1500CC4EB9B
:100550000419CC440CF13C0C1FFA8CF3DFF8A4C056
:10056000BCF8005005EBD57C4FEA6C0CACF1500C9C
:10057000C4EB0419CC440CF13C0C1FFA8CF2DFF8EC
:1005800084C0BCF8028008EBD87C4FEA6C0CACF15C
:10059000500CC4EB0419CC441FFA8CF1DFF864C092
:1005A000BCF8006006EBD67C4FEA6C0CACF1500C4A
:1005B000C4EB0419CC441FFA8CF000F048FC454809
:1005C00030F8140010490880601CC4B2052CB4DB5C
:1005D00040F2DC5001F080F8BDE8F883F8B5002463
:1005E0003DA0FFF70DFE4FF6FF70009005484088D4
:1005F000143883B2034802881421002000F05EFB07
:1006000000BF95E0880000203E0000205144746542
:100610006368B0E6C8A8CBF9D3D0207777772E717E
:1006200064746563682E6E6574000000C8ABB6AF75
:10063000B5E7D7D3D7DBBACFB2E2CAD4B3CCD0F2C6
:1006400000000000C8ABB6AFB5E7D7D3000000008C
:10065000332E322720494C49393438312033323057
:1006600058343830000000007869616F46656E6765
:100670004051447465636820323031342D30322D5E
:1006800032350000B2E2CAD4313AB4BFC9ABCCEEC5
:10069000B3E4B2E2CAD40000576869746500000090
:1006A000426C61636B0000005265640047726565CF
:1006B0006E000000426C756500000000B2E2CAD412
:1006C000323A475549BED8D0CECCEEB3E4B2E2CAF6
:1006D000D400000018000020B2E2CAD4333A4755D3
:1006E00049BBADD4B2CCEEB3E4B2E2CAD400000050
:1006F0000020F84B00905D8805EBD5735B10323B12
:1007000004EBC40707EB0417D919F24B1E8806EB5C
:10071000D6735B10503B04EBC40707EB0417D819E2
:10072000ED4B33F814201E2300F0E2FB601CC4B232
:10073000052CDDDB40F2DC5000F0CEFF4FF6FF7001
:100740000090E4484088143883B2E24802881421BB
:10075000002000F0B3FA00241FE00120DD4B0090E0
:100760005D8805EBD5735B10323B04EBC40707EBE8
:100770000417D919D74B1E8806EBD6735B10503B74
:1007800004EBC40707EB0417D819D34B33F8142034
:100790001E2300F0ADFB601CC4B2052CDDDB40F273
:1007A000DC5000F099FFF8BD08B5CCA0FFF728FD9C
:1007B0004FF47840CE4908801F20CE4908800020A1
:1007C000CDA30C221E2100900A2000F068FC01201D
:1007D000D4A30C222D2100900A2000F060FC002000
:1007E000DBA30C223C2100900A2000F058FC0020E2
:1007F000DFA31022502100900A2000F050FC0120BD
:10080000E6A31022642100900A2000F048FC00209A
:10081000EDA31022782100900A2000F040FC4FF454
:10082000966000F059FF08BD0EB5EFA0FFF7E8FC99
:1008300000201021F1A24FF6E073CDE900210290D3
:100840001F221E210A2000F049FE01201021F4A2DF
:100850004FF6E073CDE9002102901F2232210A20D9
:1008600000F03CFE01201821F3A24FF6E073CDE921
:10087000002102901F2246210A2000F02FFE0120B5
:100880002021F3A24FF6E073CDE9002102901F2250
:1008900064210A2000F022FE4FF4966000F01CFF55
:1008A0000EBD0EB5EEA0FFF7ABFC4FF6FF7000904B
:1008B00088484088143883B2864802881421002072
:1008C00000F0FCF9EB4A1E21084600F0BBFE0120B7
:1008D0001021E9A24FF6E073CDE9002102901F221A
:1008E0004B212A2000F0FAFDE24A1E215A2000F096
:1008F000A9FE01201021E0A24FF6E073CDE900210E
:1009000002901F224B21662000F0E8FDD94A1E21EB
:10091000962000F097FE01201021D7A24FF6E07339
:10092000CDE9002102901F224B21A22000F0D6FD2C
:100930004FF4966000F0D0FE0EBD08B500250026ED
:10094000002702F0A2FB00F0F3FFCCA0FFF758FC59
:100950000120604900900988183988B2CBA3102281
:10096000002100F09CFB4FF478405A490090098820
:100970001E398AB257490988343988B212230221B4
:1009800000F09CF94FF478405949088087E100F065
:10099000EAFF0446BE48416800208847BC48007D05
:1009A00000F08000002879D0B948008A49490988B8
:1009B000884276DAB648408A46494988884270DAE1
:1009C000B348018A434800881838814222DDB04884
:1009D000408A10281EDAA9A0FFF712FC01203D4929
:1009E00000900988183988B2A8A31022002100F0CD
:1009F00056FB3F48078000883649009009881E3919
:100A00008AB234490988343988B21223022100F0AD
:100A100055F946E09E48018A2E4800883C388142BC
:100A200034DD9B48018A2B4800881E3881422DDA2C
:100A30009748408A142829DA052096FBF0F100FB3C
:100A40001160254931F810802249CDF800800988CD
:100A50001E398AB21F490988343988B2122302210B
:100A600000F02CF93046711C8EB2052190FBF1F29A
:100A700001FB1200184931F810001D490880084692
:100A800007880A2000F028FE0BE007E0804A518A20
:100A9000108A174A128801F0CAFC02E00A2000F00E
:100AA0001BFE012C0AD14FF6FF7001F05CF801F03B
:100AB0008BFE01F052FD71A0FFF7A2FB681CC5B2CE
:100AC000142D06D100257348006808B90120E4E020
:100AD000E2E0E4E08800002018000020B2E2CAD47E
:100AE000343AD3A2CEC4CFD4CABEB2E2CAD4000034
:100AF0003E00002040000020365831323A616263E7
:100B00006465666768696A6B6C6D6E6F707172732D
:100B10007475767778797A303132333435363738C0
:100B200039000000365831323A4142434445464785
:100B300048494A4B4C4D4E4F5051525354555657BD
:100B400058595A303132333435363738390000008D
:100B5000365831323A7E21402324255E262A282920
:100B60005F2B7B7D3A3C3E3F2F7C2D2B2E000000DF
:100B7000385831363A6162636465666768696A6BE2
:100B80006C6D6E6F707172737475767778797A3078
:100B90003132333435363738390000003858313681
:100BA0003A4142434445464748494A4B4C4D4E4FD3
:100BB000505152535455565758595A303132333494
:100BC0003536373839000000385831363A7E214002
:100BD0002324255E262A28295F2B7B7D3A3C3E3F35
:100BE0002F7C2D2B2E000000B2E2CAD4353AD6D08D
:100BF000CEC4CFD4CABEB2E2CAD400003136583116
:100C0000363AC8ABB6AFB5E7D7D3BCBCCAF5D3D07C
:100C1000CFDEB9ABCBBEBBB6D3ADC4FA000000008B
:100C200031365831363A57656C636F6D65C8ABB66F
:100C3000AFB5E7D7D300000032345832343AC9EEAA
:100C4000DBDACAD0D6D0CEC4B2E2CAD400000000EB
:100C500033325833323AD7D6CCE5B2E2CAD40000A8
:100C6000B2E2CAD4363ACDBCC6ACCFD4CABEB2E228
:100C7000CAD400005644000851510000B2E2CAD460
:100C8000373A546F756368B2E2CAD40052535400C5
:100C900044000020A001214200200149086076E6BE
:100CA000A001214270B505460E461446314628463D
:100CB00000F0F5FE204600F0CBFE70BD2DE9F84FA8
:100CC00006460F4614461D46DDF82880A01B401C32
:100CD0001FFA80FBE81B401C80B20090681E83B2A4
:100CE000601E82B23946304600F016FF4FF4807025
:100CF000FE490861400048614FF000091AE04FF0DA
:100D0000000A11E04FEA2820F94908608020F749DD
:100D100048610861F648C0F8008080204861086199
:100D20000AF101001FFA80FADA45EBDB09F1010054
:100D30001FFA80F900988145E1DB4FF40070EB4920
:100D40000861EC484088401E83B2EA480088401E93
:100D500082B20021084600F0DFFEBDE8F88F2DE9E1
:100D6000FF4F85B081468A46002004900390079883
:100D7000A0EB09050898A0EB0A06CDF80890CDF87D
:100D800004A0002D01DD012705E00DB9002702E0D8
:100D90004FF0FF376D42002E02DD4FF0010806E0F4
:100DA00016B94FF0000802E04FF0FF387642B54226
:100DB00001DD2C4600E034464FF0000B21E0019AA3
:100DC00091B2029A90B200F084FE049828440490F4
:100DD0000398304403900498A04205DD0498001B5A
:100DE00004900298384402900398A04205DD0398CD
:100DF000001B03900198404401900BF101001FFA81
:100E000080FB601C8345DADD09B0BDE8F08F2DE979
:100E1000F04104460D4616461F462B4632462946EB
:100E20002046FFF79CFF3B46224629462046FFF717
:100E300096FF3B46324639462046FFF790FF3B4639
:100E4000324629463046FFF78AFFBDE8F081F8B503
:100E500004460D4616461F46A74800883B463246C4
:100E6000294600902046FFF729FFF8BD2DE9F04103
:100E700004460D4616461F46DDF81880EA1991B261
:100E8000A21990B24246FFF70DFFEA1991B2A21BD8
:100E900090B24246FFF706FFEA1B91B2A21990B248
:100EA0004246FFF7FFFEEA1B91B2A21B90B24246F8
:100EB000FFF7F8FEAA1991B2E21990B24246FFF785
:100EC000F1FEAA1991B2E21B90B24246FFF7EAFE88
:100ED000AA1B91B2E21990B24246FFF7E3FEAA1BA9
:100EE00091B2E21B90B24246FFF7DCFEBDE8F08112
:100EF0002DE9FF4F81B0824617469846DDF838B09D
:100F0000002445464FEA4800C0F10306BBF1000F3C
:100F10001FD01BE0A14608E04B46224600975046F2
:100F20000299FFF7A3FF09F10109A945F4DD002E9D
:100F300004DA042000FB0460861D06E0601B042127
:100F400001FB006000F10A066D1E641CAC42E1DD8D
:100F500018E015E02B462246009750460299FFF70D
:100F600085FF002E04DA042000FB0460861D06E0E5
:100F7000601B042101FB006000F10A066D1E641C69
:100F8000AC42E7DD05B0BDE8F08F2DE9FF4F83B03F
:100F900081468A469346DDE91064574800880290EE
:100FA000A6F12000C6B204EBD47009EB6000401E2D
:100FB00082B20AEB0400401E83B2514648460194B7
:100FC00000F0AAFD129850BB002525E00C2C07D19B
:100FD00006EB4600494901EB800010F8058004E06B
:100FE000474800EB061010F8058000270DE008F0D8
:100FF000010018B1584600F02BFD02E0069800F001
:1010000027FD4FEA6808781CC7B204EBD471B7EB30
:10101000610FECDB681CC5B2A542D7DB2DE00025D3
:1010200029E00C2C07D106EB4600344901EB800087
:1010300010F8058004E0324800EB061010F8058037
:10104000002711E02C48A0F800B008F0010038B1EA
:101050000AEB050291B209EB070290B200F039FDEC
:101060004FEA6808781CC7B204EBD471B7EB610F84
:10107000E8DB681CC5B2A542D3DB1F490298088093
:101080001C484088401E83B21A480088401E82B225
:101090000021084600F040FD07B0BDE8F08F2DE9C3
:1010A000FE4306460F4615461C46DDF828802CE018
:1010B00010480088401EB04204DB0E484088401EA5
:1010C000B84201DABDE8FE8320788DE821010D48A1
:1010D00003880948028839463046FFF756FF2846FC
:1010E00005EBD07106EB61018EB20DE000100140FE
:1010F0000C0C0140880000203E000020D650000863
:101100004A55000840000020641C20787E2802DC3C
:1011100020782028CCDA00BFD4E710B502460120A1
:1011200000E050430B00A1F10104E1B2F9D110BD80
:101130002DE9FF4F83B0074691461E46109C4FF0A5
:10114000000A002543E0701B401EC1B20A20FFF7D1
:10115000E4FFB9FBF0F00A21B0FBF1F201FB120849
:10116000BAF1000F1BD1701EA84218DDB8F1000FB4
:1011700013D100202021A346CDE90014029004EBF6
:10118000DB71491001FB057188B2FD490B88FD49EF
:101190000A880499FFF7F9FE17E04FF0010A0021D1
:1011A00008F13000C0B2A346CDE90141009004EB44
:1011B000DB71491001FB057188B2F1490B88F149D7
:1011C0000A880499FFF7E1FE00BF681CC5B2B5426A
:1011D000B9DB07B0BDE8F08F2DE9FC5F0546884616
:1011E00091469A46DDF830B000952E2001900024FB
:1011F0005FE004EB0410E44911F810009BF80010C4
:10120000884253D104EB0410DF4901EB40004078E1
:101210009BF80110884249D108F10F0083B205F113
:101220000F0082B24146284600F076FC00263BE0E3
:10123000002734E00D9890B904EB0410D24901EB7B
:101240004000801C805D80213941084018B148462B
:1012500000F0FEFB21E0504600F0FAFB1DE0C9481B
:10126000A0F8009004EB0410C74901EB4000801C7B
:10127000805D80213941084018B14146284600F080
:1012800028FC681C85B20098281A102805D1009DFA
:1012900008F101001FFA80F803E0781CC7B2082F9C
:1012A000C8DB00BF701CC6B2202EC1DB00BF601CB3
:1012B00084B2019884429CDBB4484088401E83B2CB
:1012C000B2480088401E82B20021084600F024FC8B
:1012D000BDE8FC9F2DE9FC5F0546884691469A468D
:1012E000DDF830B0009507200190002467E004EBA2
:1012F000840000EB4410A64911F810009BF8001080
:10130000884259D104EB840000EB4410A04901EB62
:10131000400040789BF8011088424DD108F1170039
:1013200083B205F1170082B24146284600F0F4FB73
:1013300000263FE0002738E00D98A0B904EB8400B8
:1013400000EB4410924901EB4000801C805D80213D
:101350003941084018B1484600F07AFB23E0504676
:1013600000F076FB1FE08748A0F8009004EB8400B3
:1013700000EB4410864901EB4000801C805D802119
:101380003941084018B14146284600F0A2FB681CCC
:1013900085B20098281A182805D1009D08F101008F
:1013A0001FFA80F803E0781CC7B2082FC4DB00BF27
:1013B000701CC6B2482EBDDB00BF601C84B2019811
:1013C000844294DB71484088401E83B26F48008895
:1013D000401E82B20021084600F09EFBBDE8FC9F43
:1013E0002DE9FC5F0546884691469A46DDF830B007
:1013F00000950420019000245FE004EB841065490F
:1014000011F810009BF80010884253D104EB8410AF
:10141000604901EB400040789BF80110884249D1B7
:1014200008F11F0083B205F11F0082B24146284631
:1014300000F072FB00263BE0002734E00D9890B9E5
:1014400004EB8410534901EB4000801C805D802137
:101450003941084018B1484600F0FAFA21E05046F8
:1014600000F0F6FA1DE04748A0F8009004EB841065
:10147000484901EB4000801C805D802139410840D3
:1014800018B14146284600F024FB681C85B200983C
:10149000281A202805D1009D08F101001FFA80F8C4
:1014A00003E0781CC7B2082FC8DB00BF701CC6B2AF
:1014B000802EC1DB00BF601C84B2019884429CDB9B
:1014C00032484088401E83B230480088401E82B2B5
:1014D0000021084600F020FBBDE8FC9F2DE9FF4FEE
:1014E00083B0064688469146DDE91147109DB24615
:1014F0004FF0000B7EE0BBF1000F4DD104EBD47137
:10150000224A1288A2EB6101B14204DB1F494988DB
:10151000091B414502DA07B0BDE8F08F2878802822
:1015200002DD4FF0010B65E028780D2806D108EBAD
:1015300004001FFA80F856466D1C1EE0102C0DDDCD
:10154000102128788DE883004A4641463046069BA4
:10155000FFF71BFD06F1080086B20EE028788DE843
:1015600091004A4641463046069BFFF70EFD204655
:1015700004EBD07106EB61018EB26D1C3AE0000005
:10158000400000203E0000203A5B00088800002058
:10159000566100085C63000841480088001BB042A7
:1015A00004DB3F484088001B404500DAB3E74FF0BA
:1015B000000B202C08D1CDE900574A464146304661
:1015C000069BFFF70DFF12E0182C08D1CDE900575C
:1015D0004A4641463046069BFFF77CFE07E0CDE9D0
:1015E00000574A4641463046069BFFF7F5FDAD1CC5
:1015F000301986B2287800287FF47DAF00BF8AE7D3
:101600002DE9FF4F83B004460F469046DDE9119A5D
:10161000109D284602F09EF986B221490988A1EB67
:10162000C60000EBD071C1F34F0B04EB0B0188B285
:101630008DE8200642463946069BFFF74FFF07B06C
:10164000BDE8F08F2DE9F04706460F46154607F135
:10165000270083B206F1270082B23946304600F0F7
:101660005BFA00240AE015F8149005EB440090F8AA
:10167000018049EA082000F0EBF9641CB4F5C86F5A
:10168000F1DB07484088401E83B205480088401EB1
:1016900082B20021084600F03FFABDE8F087000062
:1016A0008800002010B504466FF0040001F0B3FD7F
:1016B000E11704EB5171C1F3C701234A11701046C1
:1016C000007800EB4001C1EBC0104FF6FF7101EA5A
:1016D000C0001E49088010BD01461C4A12884A43BA
:1016E0004FF0E0235A6100229A6101221A6100BF83
:1016F0004FF0E022106900F001021AB100F48032CC
:10170000002AF5D000224FF0E0231A619A61704759
:1017100001460D4A12784A434FF0E0235A610022F5
:101720009A6101221A6100BF4FF0E022106900F0B7
:1017300001021AB100F48032002AF5D000224FF0E5
:10174000E0231A619A6170472200002024000020E3
:101750000CB50020019000906C48006840F4803087
:101760006A49086000BF6948006800F400300090D2
:101770000198401C0190009818B90198B0F5A06F2D
:10178000F1D16248006800F4003010B101200090EF
:1017900001E0002000900098012843D15C480068D7
:1017A00040F010005A4908600846006820F0030025
:1017B00008600846006840F002000860534840682E
:1017C000524948600846406848600846406840F40E
:1017D000806048600846406820F47C1048600846F5
:1017E000406840F4E81048600846006840F08070A7
:1017F000086000BF4548006800F000700028F9D07C
:101800004248406820F0030040494860084640686C
:1018100040F00200486000BF3C48406800F00C0007
:101820000828F9D10CBD10B5FFF792FF10BD10B517
:101830003648006840F001003449086008464068B6
:101840003449084031494860084600683249084038
:101850002E4908600846006820F480200860084689
:10186000406820F4FE0048604FF41F008860FFF7D6
:10187000DAFF4FF000602949086010BD10B5002163
:1018800000200022214B5B6803F00C0121B10429E8
:1018900006D0082928D107E0214B224C236027E0FD
:1018A0001F4B204C236023E0184B5B6803F470103F
:1018B000164B5B6803F48032022303EB904022B99D
:1018C000194B4343174C23600DE0104B5B6803F446
:1018D000003323B1144B4343124C236003E0104BFD
:1018E0004343104C236003E00D4B0E4C236000BFBC
:1018F00000BF064B5B68C3F303130C4CE15C094B60
:101900001B68CB40074C236010BD00000010024054
:10191000002002400000FFF8FFFFF6FE08ED00E0A7
:1019200000127A002800002000093D002C00002051
:1019300008B50121042001F0A9FF4FF42040ADF8C3
:10194000000048208DF8030069462E4801F0E2FCB3
:101950000120ADF8000028208DF8030069462948D1
:1019600001F0D8FC08BD10B50121274801F0A3FD06
:101970002648007878B32648006840B124480830EB
:10198000006820B1224834380068012824D10A2098
:10199000FFF7A2FE00201D4908701D48006828B905
:1019A00001211C4801F087FD012010BD18480830B6
:1019B000006828B90121174801F07DFD0220F4E7F5
:1019C000134834380068012816D10121114801F06C
:1019D00072FD0320E9E7FFE70D48006801280BD1FD
:1019E0000B4808300068012806D1094834380068DF
:1019F00010B90120054908700121064801F05BFD7E
:101A00000020D2E700080140000430003C00002024
:101A100034012142000230004FF48071E54A5161E7
:101A200049005161E44908608021516111618900D8
:101A3000116170474FF48071DE4A116149005161B4
:101A4000DD49086080215161116189001161704791
:101A50004FF40071D74A5161402111618900116131
:101A60000112D54A11608021D24A51611161D249D7
:101A7000086080215161116189001161704710B5C2
:101A800004460B462046FFF7C7FF1846FFF7D2FF74
:101A900010BD00B5C949087AFFF7BEFF00BD10B5FB
:101AA00003460C46C549887AFFF7B6FF1812FFF7C0
:101AB000C1FFD8B2FFF7BEFFC049087BFFF7ACFFFC
:101AC0002012FFF7B7FFE0B2FFF7B4FFFFF7E1FF27
:101AD00010BD30B504460D4629462046FFF7DFFF0E
:101AE0004FF40070B34948614020086180000861EC
:101AF000B34800880012B04908608020AD494861B1
:101B00000861AF480088AC4908608020A949486155
:101B100008618000086130BD70B504460D46164668
:101B2000A649887AFFF778FF2012FFF783FFE0B21B
:101B3000FFF780FF3012FFF77DFFF0B2FFF77AFF6B
:101B40009E49087BFFF768FF2812FFF773FFE8B292
:101B5000FFF770FF1812FFF76DFFD8B2FFF76AFFAB
:101B6000FFF797FF70BD30B50446002593484088C5
:101B7000401E83B291480088401E82B20021084670
:101B8000FFF7CAFF4FF480708A490861400048613E
:101B900000BF0CE020128849086080208549486118
:101BA0000861854804608020486108616D1C834895
:101BB0000088824949884843A842EBD84FF4007016
:101BC0007C49086130BD08B50121192001F05EFE95
:101BD00001217C4801F06FFC4FF4FC60ADF800007F
:101BE00010208DF8030003208DF80200694671482B
:101BF00001F090FB4FF4F8616E4801F038FC4FF6AD
:101C0000FF70ADF8000069466B480C3801F082FBAC
:101C10004FF6FF7168480C3801F029FC08BD10B57B
:101C20002020644948616420FFF756FD2020614967
:101C300008613220FFF750FD10BD00B52C205F4930
:101C40000881002088714FF4A07008804FF4F07074
:101C500048802A2048812B2088810A213620FFF7DE
:101C60000EFF00BD10B5FFF7AEFFFFF7D8FF112044
:101C7000FFF7D2FE1420FFF72FFDD020FFF7CCFE98
:101C80000720FFF7D7FE4220FFF7D4FE1820FFF70A
:101C9000D1FED120FFF7C0FE0020FFF7CBFE0720CA
:101CA000FFF7C8FE1020FFF7C5FED220FFF7B4FEF5
:101CB0000120FFF7BFFE0220FFF7BCFEC020FFF7A8
:101CC000ABFE0020FFF7B6FE3B20FFF7B3FE00207F
:101CD000FFF7B0FE0220FFF7ADFE1120FFF7AAFECE
:101CE000C520FFF799FE0320FFF7A4FEC820FFF7E9
:101CF00093FE0020FFF79EFE3220FFF79BFE36206A
:101D0000FFF798FE4520FFF795FE0620FFF792FEAD
:101D10001620FFF78FFE3720FFF78CFE7520FFF7A8
:101D200089FE7720FFF786FE5420FFF783FE0C2004
:101D3000FFF780FE0020FFF77DFE3620FFF76CFEE8
:101D40000A20FFF777FE3A20FFF766FE5520FFF7DF
:101D500071FE2A20FFF760FE0020FFF76BFE0020D7
:101D6000FFF768FE0120FFF765FE3F20FFF762FEE8
:101D70002B20FFF751FE0020FFF75CFE0020FFF74D
:101D800059FE0120FFF756FEE020FFF753FE7820B2
:101D9000FFF7A2FC2920FFF73FFE2C20FFF73CFEB7
:101DA000FFF74BFF0120084908604FF6FF70FFF76F
:101DB000DAFE10BD001001400C0C0140880000202C
:101DC0003E00002000023000A801224208B5012197
:101DD000102001F05BFD4FF4C050ADF80000102062
:101DE0008DF8030003208DF8020069468A4801F04F
:101DF00091FA0120894908608949C1F8AC0108BD00
:101E000010B58548406820F4704083494860084612
:101E1000406840F44050486001208049091F086034
:101E20007F49C1F8B0010420FFF772FC00207B4914
:101E3000091F08600420FFF76BFC00207849C1F8F7
:101E4000B00110BD10B57448406820F4704072496C
:101E500048600846406840F44050486000206F49A0
:101E600008606F49C1F8AC010420FFF751FC012064
:101E70006A4908606A49C1F8AC010420FFF748FCD0
:101E800010BD10B500246448406820F470406249D9
:101E900048600846406840F40040486001205F49BF
:101EA000091F0860FFF734FC01205D49C1F8B0014B
:101EB000FFF72EFC07E0601CC4B2FA2C03DDFFF72D
:101EC000C1FF012010BD5548843800680028F2D1B8
:101ED0005249086000BFF5E710B500204F4908607F
:101EE0004D48406820F470404B49486008464068BF
:101EF00040F44050486000204949C1F8AC0102203C
:101F0000FFF706FC0120454908600220FFF700FCAE
:101F100000204349C1F8B00110BD10B500203F4971
:101F200008603D48406820F470403B4948600846DE
:101F3000406840F44050486001203949C1F8AC0184
:101F40000220FFF7E5FB0120344908600220FFF77B
:101F5000DFFB00203249C1F8B00110BD70B5044666
:101F60002D48406820F470402B494860084640687E
:101F700040F440504860002028490860002517E0E0
:101F8000E0092649091F08606006040E0220FFF7D9
:101F9000BFFB01202249C1F8B0010220FFF7B8FBC6
:101FA00000201E4908600220FFF7B2FB681CC5B282
:101FB000082DE5DB70BD70B5054600241648406865
:101FC00020F47040144948600846406840F40040DE
:101FD0004860002616E00020104908600220FFF744
:101FE00097FB01200E49C1F8B0016006040E0B48B2
:101FF0008438006808B1601CC4B20120FFF788FB78
:10200000701CC6B2082EE6DB15B9FFF786FF01E0AB
:10201000FFF762FF204670BD00100140B001224270
:102020000000224210B5FFF7D1FE10BD70B5044686
:102030000026FFF7E5FE2546E11704EB11610912C2
:10204000A02202EB4101C8B2FFF788FFFFF719FF9A
:10205000E11704EB11610912A4EB0121C8B2FFF7EB
:102060007DFFFFF70EFFFFF7CBFEA120FFF776FF06
:10207000FFF707FF0020FFF79EFF0646FFF7E2FE8F
:10208000304670BD70B504460E46FFF7B9FE2546D2
:10209000E11704EB11610912A02202EB4101C8B261
:1020A000FFF75CFFFFF7EDFEE11704EB116109128A
:1020B000A4EB0121C8B2FFF751FFFFF7E2FE304663
:1020C000FFF74CFFFFF7DDFEFFF7BCFE0A20FFF72E
:1020D00003FB70BD2DE9F04105460E46174600246E
:1020E00009E0E20026FA02F2D1B22A1990B2FFF713
:1020F000C9FF601CC4B2BC42F3DBBDE8F0812DE92E
:10210000F04107460C460026002509E03602391941
:10211000491B491E88B2FFF789FF0644681CC5B2F7
:10212000A542F3DB3046BDE8F08110B5FF20FFF794
:102130007DFF0446552C01D1002010BD5521FF2004
:10214000FFF7A0FFFF20FFF771FF0446552C01D1D8
:102150000020F2E70120F0E770B506460C46154670
:1021600008E03046721C96B2FFF760FF04F8010BDE
:10217000681E85B2002DF4D170BD70B505460C46C1
:10218000164606E021782846FFF77CFF681C85B2DA
:10219000641C3000A6F101018EB2F3D170BD0000C5
:1021A000002100BF15E000F080021AB10122FE4BB1
:1021B0001A6002E00022FC4B1A604206100E002258
:1021C000F94B0C3B1A600122F84BC3F880214A1CE2
:1021D000D1B20829E7DB704770B506460025002418
:1021E0000020F1490C390860F049C1F88C01EE4932
:1021F000283108603046FFF7D3FF0620FFF788FA42
:102200000020EA49C1F880010120FFF781FA01208E
:10221000E5490C3908600020E449C1F8800100BF9D
:1022200013E04FF6FF7000EA44040020DE490C3949
:1022300008600120DD49C1F88001DB48843800686E
:1022400008B1601C84B2681CC5B2102DE9DB2411F2
:102250000120D54928310860204670BD2DE9FE4394
:1022600080460027002406E04046FFF7B5FF2DF822
:102270001400601C84B2052CF6DB002416E0601C00
:1022800085B20FE03DF814003DF81510884207DDD7
:102290003DF814603DF815002DF814002DF8156078
:1022A000681C85B2052DEDDB601C84B2042CE6DBD6
:1022B0000027012405E03DF81400384487B2601C73
:1022C00084B2042CF7DB032097FBF0F086B2304693
:1022D000BDE8FE832DE9F04104460D46B448007880
:1022E000FFF7BCFF0646B3480078FFF7B7FF074685
:1022F00026802F800120BDE8F0817FB504460D4681
:1023000002A903A8FFF7E6FF064616B9002004B0AD
:1023100070BD694601A8FFF7DDFF06460EB9002033
:10232000F5E7BDF80400BDF80C10884206DCBDF8E6
:102330000C10BDF80400323081420CDBBDF80C00FB
:10234000BDF80410884236DCBDF80410BDF80C005E
:10235000323081422FDABDF80000BDF80810884203
:1023600006DCBDF80810BDF80000323081420CDBFD
:10237000BDF80800BDF8001088421CDCBDF8001054
:10238000BDF808003230814215DABDF80C10BDF8F6
:102390000420881800EBD071C1F34F012180BDF8F3
:1023A0000810BDF80020881800EBD071C1F34F0170
:1023B00029800120ABE70020A9E7F8B504460D46C7
:1023C00016467D48068004F10D018AB2193988B29B
:1023D0002B462946FEF7C3FC05F10D0083B21938E0
:1023E00081B222462046FEF7BAFC6A1C91B2621CFA
:1023F00090B2FFF76EFB6A1C91B2621E90B2FFF7BB
:1024000068FB6A1E91B2621C90B2FFF762FB6A1E03
:1024100091B2621E90B2FFF75CFB00200623009091
:102420006548028829462046FEF762FDF8BD70B572
:1024300004460D4616466048068029462046FFF7AA
:1024400048FB611C88B22946FFF743FB681C81B238
:102450002046FFF73EFB6A1C91B2621C90B2FFF768
:1024600038FB70BD2DE9F04104464F4888380068BC
:10247000002853D124B15149881EFFF73EFF3CE0AC
:102480004E49881EFFF739FFB8B34C491239B1F9EC
:10249000200001F073FE074648491239088A01F00E
:1024A00085FE8046454812388169404601F092FE1B
:1024B0000646394601F002FD054601F03FFE3F4960
:1024C00012390882B1F9220001F058FE07463B4953
:1024D0001239488A01F06AFE804638481238C169CC
:1024E000404601F077FE0646394601F0E7FC054616
:1024F00001F024FE31491239488230481238007DFB
:1025000000F0800010BBC0202C4912390875084625
:10251000008A88810846408AC88117E02748123817
:10252000007D00F0800040B124481238007D20F08A
:10253000800022491239087508E000201F4912392D
:102540008881C8814FF6FF70088248821B48123884
:10255000007D00F08000BDE8F08170B517491239A8
:102560008869174901F036FE054601F0CBFD0446A7
:10257000042221462820FFF7ADFD10491239C86911
:102580000F4901F027FE054601F0BCFD0446042278
:1025900021462C20FFF79EFD08481238B0F9201084
:1025A000022230200EE000008C0122420000224274
:1025B0006C0000206D0000203E000020560000202E
:1025C00020BCBE4CFFF786FDF748B0F9221002226E
:1025D0003220FFF77FFDF44890F824103420FFF7F5
:1025E00051FD0A2421463520FFF74CFD70BD70B522
:1025F0003520FFF71BFD04460A2C42D10421282078
:10260000FFF77DFD0446204601F0B8FD0546E74989
:1026100001F0B6FCE449886104212C20FFF76FFD2E
:102620000446204601F0AAFD0546E04901F0A8FC59
:10263000DD49C86102213020FFF761FD00B2DA49AF
:10264000088402213220FFF75AFD00B2D64948849F
:102650003420FFF7EBFCD44981F82400084690F8B9
:10266000240030B19020D2490870D020D1490870A0
:1026700005E0D020CE4908709020CE490870012096
:1026800070BD0020FCE72DE9F84F04460D461746C3
:102690001E46DDE90CABDDE90A894FF47840C649F6
:1026A00008800120C5A31022A02100902820FEF759
:1026B000F6FC0120C2A31022A02100907820FEF792
:1026C000EEFC0120BFA31022B42100902820FEF7C9
:1026D000E6FC0120BCA31022B42100907820FEF774
:1026E000DEFC0120B9A31022C82100902820FEF7AB
:1026F000D6FC0120B6A31022C82100907820FEF756
:10270000CEFC0120B3A31022DC2100902820FEF78C
:10271000C6FC0120B0A31022DC2100907820FEF737
:10272000BEFC0120ADA31022F02100902820FEF76E
:10273000B6FC102004232246A02100904020FEF782
:10274000F7FC102004232A46A02100909020FEF7D9
:10275000EFFC102004233A46B42100904020FEF7FD
:10276000E7FC102004233246B42100909020FEF7AD
:10277000DFFC102004234246C82100904020FEF7D1
:10278000D7FC102004234A46C82100909020FEF771
:10279000CFFC102004235246DC2100904020FEF79D
:1027A000C7FC102004235A46DC2100909020FEF73D
:1027B000BFFC102000908B480188032360200E9AF4
:1027C000FEF7B6FCBDE8F88F00B595B0002010907C
:1027D0000A9010901F20784908804FF6FF708249B8
:1027E0000880FFF7C0F94FF47840734908804FF62E
:1027F000FF70FFF7B8F900206F49088001207BA324
:102800001022282100900A20FEF749FC01207FA316
:102810001022382100900A20FEF741FC012084A3F9
:102820001022482100900A20FEF739FC012088A3DD
:102830001022582100900A20FEF731FC4FF4784214
:1028400014210846FFF7B9FD002057490875886133
:1028500053E2554840680990012009998847524839
:10286000007D00F0C00040287AD100200A904E4838
:10287000007D20F040004C4908750846018A11AAE5
:10288000109822F820104848418A109802EB8000E6
:1028900041801098401CC0B210901098012806D0BA
:1028A000022815D0032829D0042810D141E04FF682
:1028B000FF7214210846FFF780FD4A48008814384B
:1028C00080B24FF4784214210990FFF776FDC7E3F8
:1028D00044480088143880B24FF6FF7214210990E2
:1028E000FFF76BFD3F484088143880B24FF47842C0
:1028F000014609901420FFF760FDB1E33948408894
:10290000143880B24FF6FF72014609901420FFF789
:1029100054FD34484088143880B20990314800880A
:10292000143880B24FF4784208900999FFF745FDBA
:1029300096E3BDF84400BDF84810401A09900028FD
:1029400001DB099801E0099840420D90BDF846105E
:1029500011A8C088081A0990002802DB099802E033
:102960007FE3099840420C900D9840430D900C98DD
:1029700040430C90DDE90C100844059001F0B3F8D9
:10298000CDE9060101F04FF8CDE9080101F07EF82C
:1029900080B20F90BDF84C00BDF85010401A09905D
:1029A000002863DB099863E04400002020BCBE4C93
:1029B0006C0000206D0000203E00002078313A00BD
:1029C00079313A0078323A0079323A0078333A0075
:1029D00079333A0078343A0079343A0066616320FA
:1029E00069733A008800002040000020506C656147
:1029F00073652075736520746865207374796C75D0
:102A00007320636C69636B207468650063726F7315
:102A100073206F6E207468652073637265656E2E17
:102A20005468652063726F73732077696C6C000063
:102A3000616C77617973206D6F766520756E74694E
:102A40006C207468652073637265656E20000000F9
:102A500061646A7573746D656E7420697320636F49
:102A60006D706C657465642E00000000099840422A
:102A70000D9011A84189C089081A0990002801DB2E
:102A8000099801E0099840420C900D9840430D9040
:102A90000C9840430C90DDE90C100844059001F0BF
:102AA00022F8CDE9060100F0BEFFCDE9080100F0F3
:102AB000EDFF80B20E900E9801F078FB09900F9810
:102AC00001F074FB0890099901F05AFA0B900B98E9
:102AD00001F0C8F94FF06632FE4BCDE9080101F074
:102AE00015F80DD30B9801F0BDF9FB4AFB4BCDE96E
:102AF000080101F09BF803D30F9808B10E98E8BBCA
:102B000000201090F6484088143880B20990F448AC
:102B10000088143880B24FF6FF7208900999FFF7C9
:102B20004CFC4FF4784214210846FFF746FCED496F
:102B30000B9801F04FFB089001F000FB80B211A947
:102B40000990C989BDF8502011AB5B89CDE90132EC
:102B5000CDE90310BDF84C00009011A8C088089082
:102B6000BDF848000790BDF846000690BDF8440047
:102B7000059006A90EC9FFF786FD81E2FFE7BDF8C3
:102B80004400BDF84C10401A0990002801DB099858
:102B900001E0099840420D90BDF8461011A8408907
:102BA000081A0990002801DB099801E009984042C1
:102BB0000C900D9840430D900C9840430C90DDE92B
:102BC0000C100844059000F08EFFCDE9060100F0DE
:102BD0002AFFCDE9080100F059FF80B20F90BDF83F
:102BE0004800BDF85010401A0990002801DB0998F0
:102BF00001E0099840420D9011A8C188C089081AC7
:102C00000990002801DB099801E0099840420C90E6
:102C10000D9840430D900C9840430C90DDE90C104A
:102C20000844059000F05FFFCDE9060100F0FBFECF
:102C3000CDE9080100F02AFF80B20E900E9801F055
:102C4000B5FA09900F9801F0B1FA0890099901F0CE
:102C500097F90B900B9801F005F94FF066329D4BF8
:102C6000CDE9080100F052FF09D30B9801F0FAF802
:102C7000994A9A4BCDE9080100F0D8FF3ED20020D6
:102C8000109097484088143880B209909448008882
:102C9000143880B24FF6FF7208900999FFF78DFB48
:102CA0004FF4784214210846FFF787FB8D490B98B3
:102CB00001F090FA089001F041FA80B201460990C3
:102CC00011A8C289BDF8500011AB5B89CDE9013074
:102CD000CDE90321BDF84C00009011A8C0880890F0
:102CE000BDF848000790BDF846000690BDF84400C6
:102CF000059006A90EC9FFF7C6FCC1E1BDF8480062
:102D0000BDF84C10401A0990002801DB099801E039
:102D1000099840420D9011A8C1884089081A09906D
:102D2000002801DB099801E0099840420C900D98B9
:102D300040430D900C9840430C90DDE90C10084482
:102D4000059000F0D0FECDE9060100F06CFECDE963
:102D5000080100F09BFE80B20F90BDF84400BDF862
:102D60005010401A0990002801DB099801E00998E9
:102D700040420D90BDF8461011A8C089081A09906C
:102D8000002801DB099801E0099840420C900D9859
:102D900040430D900C9840430C90DDE90C10084422
:102DA000059000F0A0FECDE9060100F03CFECDE963
:102DB000080100F06BFE80B20E900E9801F0F6F95B
:102DC00009900F9801F0F2F90890099901F0D8F8EC
:102DD0000B900B9801F046F84FF066323D4BCDE971
:102DE000080100F093FE09D30B9801F03BF83A4A32
:102DF0003A4BCDE9080100F019FF3ED200201090B7
:102E000037484088143880B2099035480088143813
:102E100080B24FF6FF7208900999FFF7CEFA4FF48F
:102E2000784214210846FFF7C8FA2E490B9801F0A2
:102E3000D1F9089001F082F980B20246099011A8F8
:102E4000C089BDF8501011AB5B89CDE90131CDE9E6
:102E50000302BDF84C00009011A8C0880890BDF88E
:102E600048000790BDF846000690BDF84400059064
:102E700006A90EC9FFF707FC02E1BDF84800BDF83E
:102E80004410401A079001F079F90990144800881D
:102E90002838079001F072F90890099901F070F84C
:102EA00011498861BDF84800BDF8441008440490F9
:102EB00001F064F905900C4880690146049005987A
:102EC00001F088F9079006480088059001F06EF936
:102ED00006900BE06666EE3FCDCCCCCCCCCCF03F80
:102EE000880000200000C84244000020079901F03B
:102EF0003DFA4FF08041089001F042F8099001F04E
:102F000001F900B27B49088411A84089BDF8461038
:102F1000401A079001F032F9099077484088283824
:102F2000079001F02BF90890099901F029F87149EF
:102F3000C86111A84089BDF846100844049001F00A
:102F40001DF905906B48C06901460490059801F091
:102F500041F9079068484088059001F027F90690EC
:102F6000079901F003FA4FF08041089001F008F84A
:102F7000099001F0C7F800B25E49488408468069AC
:102F8000079001F0BFF80890002801DB089801E0E5
:102F90000898404202280DDC5648C069079001F0AD
:102FA000B1F80990002801DB099801E00998404236
:102FB00002283ADD002010904F484088143880B233
:102FC00009904D480088143880B24FF6FF7208907F
:102FD0000999FFF7F2F94FF4784214210846FFF7F8
:102FE000ECF9012045A310221A2100902820FEF7B9
:102FF00056F8404890F8240008B9012000E000206D
:103000003C4981F82400084690F8240030B1902013
:103010003F490870D0203F49087005E0D0203C4966
:10302000087090203B4908702AE01F203A49088028
:103030004FF6FF70FEF797FD012038A310226E2196
:1030400000902320FEF72BF84FF47A70FEF744FB34
:10305000FFF783FA4FF6FF70FEF785FD15B000BD50
:1030600000BF0A20FEF738FB0A98401C80B20A9085
:103070000A98B0F57A7F02DDFFF7B9FA02E000BFE7
:10308000FFF7E7BB00BF00BFE8E708B5012111204B
:1030900000F0FCFB42F20900ADF8000010208DF8B2
:1030A000030003208DF802006946224800F032F93F
:1030B0000620ADF8000048208DF8030069461D4841
:1030C00000F028F90B491231881EFFF703F9FEF7CB
:1030D000A9FFFFF78CFA08B1002008BD4FF6FF707A
:1030E000FEF741FDFFF770FBFFF737FAFFF77FFAB6
:1030F0000120F2E744000020880000205450204EB8
:1031000065656420726561646A75737421000000EE
:103110006C0000206D0000203E000020546F75639D
:10312000682053637265656E2041646A757374200C
:103130004F4B2100001001400948804709480047D3
:10314000FEE7FEE7FEE7FEE7FEE7FEE7FEE7FEE757
:10315000FEE7FEE704480549054A064B70470000B4
:103160002F180008ED000008F8000020F8060020E5
:10317000F8020020F802002031490143314A116071
:10318000704770B5002100230F22C47804B32D4C82
:10319000246804F4E064C4F5E064210AC1F1040386
:1031A000CA40447804FA03F18478144021430901A9
:1031B000254C0678A155047804F01F050124AC4085
:1031C00005786D11AD0005F1E025C5F8004109E075
:1031D000047804F01F050124AC401C4D06787611DC
:1031E00045F8264070BD1A4A0A400243154B1B1F82
:1031F0001A60704739B1134A121D12680243114B0D
:103200001B1D1A6006E00F4A121D126882430D4B07
:103210001B1D1A607047042808D14FF0E02109698E
:1032200041F004014FF0E022116107E04FF0E0218E
:10323000096921F004014FF0E0221161704700009C
:103240000000FA050CED00E000E400E080E100E0A1
:1032500080FFFF1F10B50446CC48844208D10121ED
:10326000042000F02DFB0021042000F029FB46E0A3
:10327000C748844208D10121082000F021FB002129
:10328000082000F01DFB3AE0C248844208D1012129
:10329000102000F015FB0021102000F011FB2EE0A3
:1032A000BD48844208D10121202000F009FB002103
:1032B000202000F005FB22E0B848844208D101211B
:1032C000402000F0FDFA0021402000F0F9FA16E05D
:1032D000B348844208D10121802000F0F1FA002196
:1032E000802000F0EDFA0AE0AE48844207D10121C7
:1032F000801500F0E5FA0021A01500F0E1FA10BDFC
:1033000010B50121084600F0DBFA0021012000F091
:10331000D7FA10BD2DE9F041024600250026002015
:1033200000230024002791F803C00CF00F0591F84A
:1033300003C00CF0100CBCF1000F03D091F802C0D8
:103340004CEA050591F800C0BCF1000F31D01468BB
:1033500000202BE04FF0010C0CFA00F3B1F800C094
:103360000CEA03069E4220D183004FF00F0C0CFAAA
:1033700003F7BC4305FA03FC4CEA040491F803C0CC
:10338000BCF1280F06D14FF0010C0CFA00FCC2F87A
:1033900014C00AE091F803C0BCF1480F05D14FF00A
:1033A000010C0CFA00FCC2F810C0401C0828D1D354
:1033B0001460B1F800C0BCF1FF0F34DD5468002088
:1033C0002EE000F1080C4FF0010808FA0CF3B1F8F8
:1033D00000C00CEA03069E4221D183004FF00F0C7F
:1033E0000CFA03F7BC4305FA03FC4CEA040491F819
:1033F00003C0BCF1280F05D100F1080C08FA0CF845
:10340000C2F8148091F803C0BCF1480F07D100F155
:10341000080C4FF0010808FA0CF8C2F81080401CA4
:103420000828CED35460BDE8F0814FF6FF710180CB
:10343000022181700421C170704702460020936808
:103440000B400BB1012000E0002070470146886866
:1034500080B2704702460020D3680B400BB10120B8
:1034600000E0002070470146C86880B270470161E3
:103470007047416170470AB1016100E041617047E6
:10348000C16070474FF480320A438261816182617A
:1034900082698269704702460020434B18684FF6E4
:1034A0008073184040EA021008433F4B1860704791
:1034B0003E49C8617047F0B50A4600230024002148
:1034C000002500F00046B6F1004F02D1364EF169FA
:1034D00001E0354E7168C0F3034583B200F4401635
:1034E000B6F5401F08D121F070612F4E766826F0A6
:1034F00070662D4F7E6012E000F48016B6F5801FD6
:1035000006D1032606FA05F4A14341F0706106E0F6
:10351000460D360103FA06F6B14341F0706122B15F
:10352000460D360103FA06F6314300F00046B6F1C7
:10353000004F02D11C4EF16101E01B4E7160F0BDE5
:1035400030B500228B071C0F0F2303FA04F2164B31
:1035500008338C1053F824309343134C08348D10E7
:1035600044F8253023468C1053F824308C07240F60
:1035700000FA04F423430C4C08348D1044F8253031
:1035800030BD0A49DC310860704700000008014086
:10359000000C0140001001400014014000180140DF
:1035A000001C0140002001400000014000002042BA
:1035B000DF48006840F00100DD49086008464068C7
:1035C000DC490840DA49486008460068DA490840A2
:1035D000D74908600846006820F480200860084643
:1035E000406820F4FE0048604FF41F008860704778
:1035F000CF49096821F48031CD4A1160114609682C
:1036000021F480211160B0F5803F03D0B0F5802F08
:103610000ED106E0C649096841F48031C44A116000
:1036200007E0C349096841F4A021C14A116000E0E4
:1036300000BF00BF704710B50146002200230020E4
:103640004A11012A02D1BA4C236806E0022A02D1AB
:10365000B74C236A01E0B64C636A01F01F020124F3
:1036600094401C400CB1012000E0002010BD38B592
:10367000002000900024002500BF3120FFF7DBFF71
:1036800005460098401C00900098B0F5A06F01D04E
:10369000002DF2D03120FFF7CEFF08B1012400E069
:1036A0000024204638BD01460020A14A106820F0C1
:1036B000F80040EAC10010607047A04908607047F8
:1036C000024600209A4B586820F47C1042EA01031D
:1036D0001843974B586070479849086670470146F1
:1036E0000020934A506820F0030008435060704760
:1036F0008F48406800F00C007047014600208C4A5B
:10370000506820F0F00008435060704701460020E8
:10371000874A506820F4E0600843506070470146D3
:103720000020834A506820F4605040EAC100506095
:10373000704729B17E4A527A02437D4B5A7204E0A7
:103740007B4A527A82437A4B5A7270477B49D8310E
:103750000860704701460020754A506820F44040D8
:103760000843506070470021714A20321170704A3E
:1037700082F82010012802D004280AD104E0012197
:103780006B4A2032117005E00521694A2032117020
:1037900000E000BF00BF7047694908607047644996
:1037A000096A0143624A11627047654944390860F9
:1037B000704730B500210022002400235C4D6D6865
:1037C00005F00C0121B1042905D0082923D105E019
:1037D0005C4D056022E05B4D05601FE0544D6D6857
:1037E00005F47012524D6D6805F48034022505EB26
:1037F00092421CB9544D554305600BE04C4D6D6829
:1038000005F400351DB1504D5543056002E04D4DA6
:103810005543056002E04B4D056000BF00BF444DBD
:103820006D6805F0F0010909484D6B5C0568DD40E5
:1038300045603F4D6D6805F4E061090A434D6B5CDE
:103840004568DD4085603A4D6D6805F46051C90AF0
:103850003E4D6B5C4568DD40C560354D6D6805F4D7
:103860004041890B3A4D6B5CC568B5FBF3F50561CA
:1038700030BD29B12E4A526902432D4B5A6104E0F2
:103880002B4A526982432A4B5A61704729B1284A10
:1038900092690243264B9A6104E0254A9269824369
:1038A000234B9A61704729B1214AD2690243204BC8
:1038B000DA6104E01E4AD26982431D4BDA61704727
:1038C00029B11B4AD2680243194BDA6004E0184A56
:1038D000D2688243164BDA60704729B1144A1269E4
:1038E0000243134B1A6104E0114A12698243104BE0
:1038F0001A61704712494039086070470F49C8641F
:1039000070470B49C87170470948406A40F08070A1
:1039100007494862704701460020054A92680A40FC
:103920000AB1012000E00020704701498872704709
:10393000001002400000FFF8FFFFF6FE00004242C8
:103940008004424200127A0000093D007400002009
:103950008400002010B5431C02E010F8011B71B177
:103960008107FAD14FF0013202C88C1A8C4314EA55
:10397000C211F9D0C01A0A0603D0C01E10BDC01A69
:1039800010BD0A0401D0801E10BD0902FCD0401EEB
:1039900010BD70477047704710B500F009F8006817
:1039A00010BD10B5044600F003F8046010BD00001F
:1039B0000048704798000020004870479800002099
:1039C0007546FFF7F9FFAE4605006946534620F0FD
:1039D0000700854618B020B5FFF7BCFBBDE82040C6
:1039E0004FF000064FF000074FF000084FF0000BBB
:1039F00021F00701AC46ACE8C009ACE8C009ACE86E
:103A0000C009ACE8C0098D4670470446AFF300809A
:103A10002046FCF7B2FB000001491820ABBEFEE7D0
:103A20002600020070472DE9F04106460F4600F0DF
:103A300033F904000D4618BF0120284320F0004050
:103A4000C0F17F6000F1E040C00F0ED0301C18BF05
:103A50000120384320F00040C0F17F6000F1E040D9
:103A6000C00F04BF0120FFF79CFF20462946BDE898
:103A7000F081491058BFC1F140415B1058BFC3F1FC
:103A800040438B42EFF30080704700004FEA115330
:103A9000A3F58063D3F11E03A8BFD3F1200C08DB8C
:103AA0004FF0004242EAC12252EA505232FA03F089
:103AB000704709420BD4102BC4BF0020704703F598
:103AC000787CBCF1FF3F05D04FF0FF3070474FF0DE
:103AD0000000704770B500F055F800BF499224808F
:103AE00000207047F0E7B0FA80F310FA03F10AD033
:103AF000C3F11D0303F580634FEA41504FEA0352BF
:103B000002EBD12170474FF00000704751EA030CDF
:103B100017D41CF5801F58BFBCF5801F00F106802C
:103B2000994218BF704708BF9042704707D711F5F8
:103B3000801F58BF13F5801F19D4994270478942DE
:103B400070471CF5801F08D5BCF5801FF7D58B4248
:103B500018BF704708BF824270474FF4001C1CEB2F
:103B6000410F38BF1CEB430F01D28B42704770B539
:103B700000F008F8922449004FF000514FF08053B4
:103B8000FFF777BF0EF1020E2EF0030E5EF8046B06
:103B9000364205D4012A43EB030515F5001F12D860
:103BA000012841EB010C1CF5001F0CD80ED14FEA87
:103BB000D17C15F5001F0CEB4C0C0CF1020C08BF6E
:103BC0004CEBD37C04E04FF0080C01E04FEAD37CCF
:103BD0000CEB4C0526FA05F606F00706B6F1040CC8
:103BE00006D20EEB860CBDE870404CF0010C60472D
:103BF000DFE80CF0090B02024FF000414FF000002B
:103C0000A1F5002170BD19461046012851EB0104B1
:103C100018BFD4F5001484BF002001F0004170BD2E
:103C20000808A0F500114FEA3101704753EA010C72
:103C300017D41CF5801F58BFBCF5801F00F106800B
:103C40008B4218BF704708BF8242704707D713F5F1
:103C5000801F58BF11F5801F19D48B4270479B42BB
:103C600070471CF5801F08D5BCF5801FF7D5994219
:103C700018BF704708BF904270474FF4001C1CEB00
:103C8000430F38BF1CEB410F01D2994270470FB46C
:103C90000CBC03BCFFF76BBF2DE9F04101F5801CA4
:103CA000BCF5001FC0F2C3804FEA115C21EA0C5141
:103CB0000CF1FD0C41F480115FEA5C0C0CF5C07C4A
:103CC00001D3400049413DA4890241EA9051870255
:103CD0008E0E0A0CA45D04FB04F602FB06F6C6F188
:103CE0004046A4FB0662F60D46EA422606FB06F4B1
:103CF000A4FB01235242C3F1404338BF5B1EA6FB25
:103D000002420024E6FB0324D20B42EA4446A6FB0F
:103D10000623A1FB02E2A3FB07E4A4184FF0000274
:103D200052F10002E3FB01426442C2F1404E38BF4F
:103D3000AEF1010EA6FB04234FF00002E6FB0E32AB
:103D4000A2FB03464FF00004B61954F10004E2FB55
:103D50000264A1FB06E6A4FB07E816EB08064FF099
:103D6000000858F10008E4FB01687642C8F14058A9
:103D700038BFA8F10108A2FB06E4A3FB08E52D1952
:103D80004FF0000454F10004E2FB0854A1FB05E6E7
:103D9000A7FB04E818EB06084FF0000656F10006F2
:103DA000E1FB048618F1200556F10006A809A8F1E8
:103DB0001B08B10908F03F08B8F10A0F40EA866015
:103DC0001CD901EB0C51BDE8F08100BFFCF5EEE819
:103DD000E2DDD8D3CFCBC7C3C0BDB9B6B4B1AEACAA
:103DE000A9A7A5A3A19F9D9B9A9896959392908F22
:103DF0008D8C8B898887868584838281A0FB00686F
:103E000000FB01F208EB4208B8EB872807D534180D
:103E100058EB0104D5D5401C51F10001D1E7341A0B
:103E200078EB0104CDD4401E71F10001C9E75FEACF
:103E30004C0C5FEA9C5C0DD105D34FF0000001F003
:103E40000041BDE8F081BDE8F04170B5FFF79AFE92
:103E50006DDBFFBEBDE8F0414FF000000049704748
:103E60000000F87F43004FEAD30C4FEA3C0C43407C
:103E70001FBF40070CF1605113F0FE4F70471CF05C
:103E8000006F03D100200CF0004170470CF000439C
:103E900043EA507010B540EACC0000F01CFA00BFB5
:103EA000000000924FEA0001FFF7BABE4FF0004158
:103EB0004FF00000A1F500217047000090EA010FCB
:103EC00048BF81F0004100F15882421A3CBF801A7D
:103ED00089184FEAD0524FF07F4C1CEA410FA2EBF9
:103EE000D15318BF9CEA026F00F03B804FF0004CAA
:103EF0004CEA00204CEA012121FA03FC10EB0C0CE7
:103F00001ED202F1FF325FEA1C2040EBC25038BFE4
:103F100070471CF07F0F4FEA400C18BFBCF17F4F79
:103F200038BF7047C3F12003994008BF20F001005B
:103F3000BCF17F4F38BF7047A0F1C04000F011BA0C
:103F40004FEA3C00000A40EBC25028BF1CF0FF0FB4
:103F50004FEA400CE6D018BFBCF17F4F38BF704726
:103F6000EAE79CEA026F05D010EA5C0F08BF00F098
:103F70000040704710B500F0AEF900BF64FBBE3ED4
:103F80004FF47F0C1CEAD0121EBF1CEAD11392EA38
:103F90000C0F93EA0C0F00F0858090EA010F48BFE8
:103FA00042F4807240F4000C41F400002CF07F4198
:103FB00020F07F4000B58142A2EB03020FF2081C03
:103FC000ACEB504EC0F100009EF800E04FEA4E0E00
:103FD00000FB0EFC38BF49004FEA2C1C02F5FA0228
:103FE0000CFB0EF34FEACE1E4FEA112C4FEAC12113
:103FF0000EEB635E42EB22420EFB0CFC4FEA1C53BD
:1040000000FB03114FEA112C4FEA01310EFB0CFCAF
:104010004FEADC4C00FB0C11C14228BF09184CEBE5
:1040200003335DF804EB10EB410143EBC250B2F5F2
:104030007C0F38BF704729D512F0F00F1CBF00F17C
:10404000C04000F0004070470081828384858687ED
:1040500088898B8C8D8E8F919293959697999A9C47
:104060009D9FA0A2A3A5A7A8AAACAEB0B2B3B5B7B6
:10407000B9BCBEC0C2C5C7C9CCCED1D4D7D9DCDF8C
:10408000E2E6E9ECF0F3F7FAFE0000004FEA400C3C
:104090000CF1807CBCF17E4F28BF7047B0F1C0406E
:1040A00000F05FB990EA010F0CEAD11348BF42F467
:1040B0008072624538BF634507D213F47F0F16D074
:1040C00080EA010000F00040704710B500F003F9ED
:1040D000097EFC3E00F005B880EA010000F00040D7
:1040E000704780EA010000F0004000F03AB912F495
:1040F0007F0F04BF0248704780EA010000F031B929
:104100000000C07F41000B0ED3F19E0208D950F48D
:1041100000034FEA032323FA02F048BF40427047EE
:1041200010B500F0D8F800BF4992248000207047F5
:104130006FF0004282EA200070470000C10DD1F10B
:104140009E0206DB4FEA002343F0004323FA02F00D
:104150007047004207D54FEA4001B1F1FE4F02D24D
:104160004FF00000704710B500F0B5F84992248078
:10417000002070476FEA20007047000010F00041F7
:1041800048BF4042B0FA80F310FA03F2C3F19D0336
:104190000BD051EAC35101EB1220530638BF7047D0
:1041A00000F1010008BF20F001007047B0FA80F371
:1041B00010FA03F2C3F19D030AD0D90501EB1220D6
:1041C000530638BF704700F1010008BF20F001001E
:1041D000704700004FF47F0C1CEAD0121EBF1CEA8F
:1041E000D11392EA0C0F93EA0C0F00F0478090EA8B
:1041F000010F48BF42F480724FF0004C4CEA00209F
:104200004CEA012102EB0302A0FB0113A2F500021C
:10421000002918BF43F001035B0028BF4FEA3303B6
:1042200042EB22425FEA132C4CEBC2502EBFBCEB98
:10423000436FB2F57C0F70474FEA036CBCF1004F3F
:1042400008BF20F00100B2F57C0F38BF70470BD5D6
:1042500082F0FF0212F5803FC8BF704700F1C040F6
:10426000D8BF00F00040704700F5000C5FEA4C0C2E
:1042700048BF7047B0F1C04000F073B890EA010F3A
:104280000CEAD11348BF42F48072624538BF6345DF
:1042900004D280EA010000F00040704710B500F041
:1042A0001AF800BF8900013E00F007B800F009B815
:1042B0005FEA410C5FEA1C6C08D080EA010000F064
:1042C00050B85FEA400C5FEA1C6CF6D14FF000403A
:1042D000A0F5800070470EF1020E2EF0030E5EF87E
:1042E000044B244204D44FEA4102B2F17F4F11D86B
:1042F0004FEA4003B3F17F4F0CD80ED14FEAD07C88
:10430000B2F17F4F0CEB4C0C0CF1020C08BF4CEBE4
:10431000D17C04E04FF0080C01E04FEAD17C0CEBBB
:104320004C0324FA03F404F00704B4F1040C06D29D
:104330000EEB840CBDE810404CF0010C6047DFE848
:104340000CF0070802024FF00040A0F5800010BDFD
:104350000846420018BFD2F1807288BF00F00040CA
:1043600010BDFF2141EAD050C005704790EA010F0F
:1043700048BF81F000413FF5A8AD421A04D882F051
:104380000042A0EB020011444FEAD0524FF07F4CA4
:104390001CEA410FA2EBD15318BF9CEA026F4AD02E
:1043A0004FF0004C4CEA00204CEA012121FA03FCBA
:1043B000B0EB0C0C0FD412F0FE0F36D05FEA4C00BD
:1043C0001DD5001240EBC25038BF70471CF03F0FA4
:1043D00018BF70470BE0A2F101025FEA1C2040EB1E
:1043E000C25038BF70471CF07F0F18BF7047C3F131
:1043F0002003994014BF401E20F001007047800840
:104400004FEA122308BF7047B0FA80FCA2EB0C02FF
:10441000CCF1280C60FA0CF093EA122F04BF00EBE9
:10442000C25070474FEAC3707047130A5FEADC104E
:1044300008BF7047F6E79CEA026F04D010EA5C0FF1
:1044400008BF0020704710B5FFF745FF40DFF63E7C
:1044500081F000407047FFFFFFFFFFFFFFFFFFFFFE
:10446000FFFFFFFFFFFFFFFFFFFFFFFFFFFFFFFF5C
:10447000FFFFFFFFBEF7FFFFDEFF38C6928C8E6B9B
:104480006E6B107C96AD3CE7FFFFFFFFFFFFFFFF69
:10449000FFFFFFFFFFFFFFFFFFFFFFFFFFFFFFFF2C
:1044A000FFFFFFFFFFFFFFFFFFFFFFFFFFFFFFFF1C
:1044B000FFFFFFFFFFFFFFFFFFFFFFFFFFFFFFFF0C
:1044C000FFFFFFFF5DEF159D4F636C420A328829A5
:1044D000461925194521E8318E6B38C6FFFFFFFFCD
:1044E000FFFFFFFFFFFFFFFFFFFFFFFFFFFFFFFFDC
:1044F000FFFFFFFFFFFFFFFFFFFFFFFFFFFFFFFFCC
:10450000FFFFFFFFFFFFFFFFFFFFFFFFFFFFFFFFBB
:10451000FFFF36A51053104B51530F4B6C3AE93146
:1045200067212519E410A30862008308CB529AD6AC
:10453000FFFFFFFFFFFFFFFFFFFFFFFFFFFFFFFF8B
:10454000FFFFFFFFFFFFFFFFFFFFFFFFFFFFFFFF7B
:10455000FFFFFFFFFFFFFFFFFFFFFFFFFFFF3CE746
:104560007063B363B87CF56311434D32EA29882147
:1045700026190519051904110411E4108300A30874
:10458000728CFFFFFFFFFFFFFFFFFFFFFFFFFFFF3B
:10459000FFFFFFFFFFFFFFFFFFFFFFFFFFFFFFFF2B
:1045A000FFFFFFFFFFFFFFFFFFFFFFFFDBDE4B3AD9
:1045B000F042356C544BB1322E2AEB21A9216719F8
:1045C0000519041104110411041104110519E41052
:1045D0004200AF73FFFFFFFFFFFFFFFFFFFFFFFF83
:1045E000FFFFFFFFFFFFFFFFFFFFFFFFFFFFFFFFDB
:1045F000FFFFFFFFFFFFFFFFFFFF5DEF09324C32C0
:10460000104B8F324F2A2E2ACC198919892147192C
:10461000051904110411C410C4100411041104116B
:10462000E41042003184FFFFFFFFFFFFFFFFFFFFA9
:10463000FFFFFFFFFFFFFFFFFFFFFFFFFFFFFFFF8A
:10464000FFFFFFFFFFFFFFFFFFFFEC5247194C3258
:104650000B2AEC21EC210C22915BEE4A0611261963
:104660000419E410E410A7296621A3080519041110
:104670000411E4108200F7BDFFFFFFFFFFFFFFFF03
:10468000FFFFFFFFFFFFFFFFFFFFFFFFFFFFFFFF3A
:10469000FFFFFFFFFFFFFFFF35A58308882188216B
:1046A0008921AA218A216B42718CFFFF728C8308B9
:1046B0000411C4082942FBDE5DEFEC5A83080411A3
:1046C000041104118308E831DFFFFFFFFFFFFFFF44
:1046D000FFFFFFFFFFFFFFFFFFFFFFFFFFFFFFFFEA
:1046E000FFFFFFFFFFFFBEF7C731C41025192619D2
:1046F00047194719A8298A52284A55ADFFFFE831C2
:10470000A30805194D6B4D6BFFFF7DEF4521C410CC
:10471000041104110411620076ADFFFFFFFFFFFFDB
:10472000FFFFFFFFFFFFFFFFFFFFFFFFFFFFFFFF99
:10473000FFFFFFFFFFFF96B562000411041905118A
:104740000519C4088B4AB6B55DEFF7BDFFFF8E6B48
:1047500062002942AA5A0842FFFFFFFFCC52830899
:10476000041104110411A308AD52FFFFFFFFFFFF66
:10477000FFFFFFFFFFFFFFFFFFFFFFFF1CE7FFFF44
:10478000FFFFFFFFFFFF4E636200041104110411DD
:10479000E41062008E63FFFFFFFFFFFFFFFFCF7398
:1047A0000100F39C2C6396B5FFFFFFFF2D5B830098
:1047B000041104110411E41067213DEFFFFFFFFF16
:1047C000FFFFFFFFFFFFF8BDB7B59EEFCB52B394DD
:1047D000FFFFFFFFDFFFE831A308041104110411FC
:1047E0000411A3084942FFF7FFF7FFFFFFFF6A4AE2
:1047F00001007284FFFFFFFFFFF7DFEF093AA30814
:104800000411041104110411051118BEFFFFFFFF6C
:10481000FFFFFFFFFFFFF07B6200E831C73141007F
:1048200035A5FFFF5DEF4621C410041104110411EA
:104830000411E410A308769DFFF7FFFFB7ADA308AE
:10484000A308C7319EE7FFF7FFF776A5A308E4109A
:104850000411041104110511051135A5FFFFFFFF17
:10486000FFFFFFFFFFFFDBDEA7298300C410C4109A
:10487000C4101CE79EEF0511E4100411041104118B
:1048800004110419C408E510D16BD16BC50864008C
:10489000A50843002B32779DB3842519C410041159
:1048A00004110411041125192609359DFFFFFFFF8E
:1048B000FFFFFFFFFFFFFFFFAF7362000419051941
:1048C00082000D5B8E9B6210051104110411041906
:1048D000E41085000511C439815A407B229C43AC09
:1048E00003A4839B82728249C218A400C500E4100D
:1048F00004190411051947196711EC5ABEFFFFFF8F
:10490000FFFFFFFFFFFFDFFFDBDEC410E410041139
:104910000511A41801C08388E40005190419C5080D
:104920004421438323D542FEE4FE27FF07FFA4FE74
:1049300064FE03FEA3FDE2FC42EC83B32462E510B7
:10494000C40804192619A81987210090D3BCFFFFB9
:10495000FFFFFFFFFFFFDFFFFFFF107C4200051995
:104960000511832801D044F8A348E400C508445A3F
:1049700002EDE2FD02FE66FE74FFB8FF73FFE7F68C
:10498000A6F645F6A4F5C3FC62FCC2FCC2FCE3CB70
:10499000C449061188198701A49001F8EC9AFFFF19
:1049A000FFFFFFFFFFFFFFFFFFFFBEF7E8318300C0
:1049B0000509824001C023F885F0A348A400445AA9
:1049C00002FD23CCC2DC04FE28FE48F646F624F69F
:1049D000E4F564FDE3FC62FCC2FC02E402DCE2FC00
:1049E000A47A48016701C47824F802F884B07DE70E
:1049F000FFFFFFFFFFFFFFFFFFFFFFFFDBDE2519CC
:104A0000A300C43802E022D844F8A6F8A4786300D2
:104A1000432183728339829B21F561FD22FDE2FCF3
:104A2000A2FC42FC42FC42FC22AB8341C3920452F2
:104A300026012519A49844F823F802F8A4D09EEF83
:104A4000FFFFFFFFFFFFFFFFFFFFFFFFFFFF9AD604
:104A50008729A50043B822F823E065F8E8F807C9DC
:104A600083484200A30084006329A27A62B3A2CBE8
:104A700062D302BB828A8339A400E500E500E50821
:104A8000C46064D844F824F823F802F88388DBC6AD
:104A9000FFFFFFFFFFFFFFFFFFFFFFFFFFFFFFFF26
:104AA0003DE7505B083123E843F844F065F809F925
:104AB000ABF989D10689A34842180200420061007F
:104AC0008200620062008300A320C450A58885D8BC
:104AD00065F844F844F823F823F803D08210C72976
:104AE0005DEFFFFFFFFFFFFFFFFFFFFFFFFFFFFF88
:104AF000FFFFFFFF6C32A53802D823F865F866F88F
:104B0000A7F84AF90CFA4DFA4CEA0BD2A9B968B1E8
:104B100047A927B107B907D1E7E8C7F8A7F865F8AB
:104B200065F844F823F803F802D0A3280509C4085F
:104B3000EC5AFFFFFFFFFFFFFFFFFFFFFFFFFFFF3D
:104B4000FFFFFBDE0519C400A741E6C003F886F8A5
:104B5000A7F887F886F8C7F829F98AF9ABF9ABF90D
:104B60008BF96AF929F908F9C7F8A6F886F865F803
:104B700064F823F802F006B12529E400E4102519B1
:104B80002519149DFFFFFFFFFFFFFFFFFFFFFFFF42
:104B9000FFFF96AD620082083595BACE8BA244D055
:104BA00025F887F8A7F8C7F8A7F887F886F886F8F1
:104BB00086F887F8A7F8A7F8A6F885F865F864F8E6
:104BC00024F064B80D93BBB6CF6383080411E410DE
:104BD0006621493A5DEFFFFFFFFFFFFFFFFFFFFF89
:104BE000FFFFD3944200E410BBCEFFFFBEE776B5D3
:104BF000CCAA07C145E045F846F866F886F886F87D
:104C000086F886F865F845F865F865E844D043A865
:104C1000018882903CD7FFEF559583080411041159
:104C200005194619B394FFFFFFFFFFFFFFFFFFFFCA
:104C3000FFFFB394410086215DDFFFFFFFFFFFFF11
:104C4000DFE77AC6D3B44EB32AC268D1E6E0A6E85D
:104C5000A5E8A5E8E6D888C906A922A802A800A068
:104C600000C800D8F7E5FFE7F8ADC410E410041160
:104C7000E41005118B4AFFFFFFFFFFFFFFFFFFFF5F
:104C8000FFFF55A54100A7295DDFFFF7FFFFFFFFED
:104C9000FFFFFFFFFFFFFFEF7DDFDBCE59CEF8CD3B
:104CA000D7CDF7C579CEFBBEABA203F045F842D015
:104CB00043E800F072D4FFDF39AEE410E4100411D1
:104CC000E41005118729FFFFFFFFFFFFFFFFFFFF34
:104CD000FFFF59CE830846211CD7FFF7FFFFFFFFD8
:104CE000FFFFFFFFFFFFFFFFFFFFFFFFFFFFFFFFD4
:104CF000FFFFFFFFFFFFFFEF8BBA04F845F862E00C
:104D000044F000F88EDBFFDFF8A5C410E410E410D7
:104D10000411E4102519FFFFFFFFFFFFFFFFFFFF56
:104D2000FFFFBEF78729830839B6FFF7DFF7FFFFDC
:104D3000FFFFFFFFFFFFFFFFFFFFFFFFFFFFFFFF83
:104D4000FFFFFFFFFFFFBEE74ABA03F845F864F82C
:104D500044F800F86EE3FFD7F48C83080411E410E4
:104D6000E410E4100519FFFFFFFFFFFFFFFFFFFF47
:104D7000FFFFFFFFEF7300007284FFEFBEEFDFFF66
:104D8000FFFFFFFFFFFFFFFFFFFFFFFFFFFFFFFF33
:104D9000FFFFFFFFFFFFDFE78BBA03F845F845F899
:104DA00023F800F8D3D4FFD74E5B2100293A55A54C
:104DB0008308C4102519FFFFFFFFFFFFFFFFFFFF60
:104DC000FFFFFFFFFBDEA308E8319EDF9EE7BFEF9A
:104DD000FFFFFFFFFFFFFFFFFFFFFFFFFFFFFFFFE3
:104DE000FFFFFFFFFFFFFFF751BC02E003F803F0F6
:104DF00043E0ECC27ECFFCBE46212100D394FFFFEE
:104E0000518400008729FFFFFFFFFFFFFFFFFFFF27
:104E1000FFFFFFFFFFFF51840000F48CFFEF9EE7D0
:104E2000BFEFDFFFFFFFFFFFFFFFFFFFFFFFFFFF02
:104E3000FFFFFFFFFFFFFFFF3DDF55BD52BC72BC10
:104E4000B7B55DC7FFDFF06B0000093ABFF7FFFFA2
:104E5000FFFF149D55A5FFFFFFFFFFFFFFFFFFFFB3
:104E6000FFFFFFFFFFFFFFFFAC4AA408BBBEDFE769
:104E70007EE7BEEFDFF7DFFFFFFFFFFFFFFFFFFF74
:104E8000FFFFFFFFFFFFDFFFDFF7FFEFDFDFBFD732
:104E90009ED7DFDFD8A583082611DBD6FFFFFFFFF3
:104EA000FFFFFFFFFFFFFFFFFFFFFFFFFFFFFFFF12
:104EB000FFFFFFFFFFFF79EE8BDC2131A9213DCF02
:104EC000BFDF7EDF9EE7BEEFBFEFDFF7DFF7DFF785
:104ED000DFF7DFF7BFEFBEEF9EE77EDF5ED75ED77F
:104EE000DFDF9AB626194208EDA3BFFFFFFFFFFFE1
:104EF000FFFFFFFFFFFFFFFFFFFFFFFFFFFFFFFFC2
:104F0000FFFFFFFF74DDC0DB00FE42EE024289219D
:104F10007BB6DFDF7ED77EDF7EDF9EE79EE79EE704
:104F20009EE79EE77EDF7EDF5DD75DD79EDFFFE7F2
:104F3000F8A50711E31802C560FDE6D3DBEEFFFF1D
:104F4000FFFFFFFFFFFFFFFFFFFFFFFFFFFFFFFF71
:104F5000FFFF9EF784BAC1FC42FE82FEA2FE81835F
:104F6000452174745EC7DFDF7ED75ED75DD75ED71D
:104F70005ED75DD75DD75ED79EDFFFE73DC7F163A4
:104F80008408425226E629FF86FEE0F36AC3FFFF4B
:104F9000FFFFFFFFFFFFFFFFFFFFFFFFFFFFFFFF21
:104FA000FFFF18DEC1D2A2FD22FE42FE42FE62FEDB
:104FB000E2D4416A494253743BA63EC7BFD7BFD72C
:104FC000BFD7BFDFBFD73EC71AA6F263A72982416A
:104FD00022B462FE83FEAAFE0FFF67FD63BA3CEFB8
:104FE000FFFFFFFFFFFFFFFFFFFFFFFFFFFFFFFFD1
:104FF000FFFF9AE680D221FDC2FDE2F5C2F582F5FF
:1050000082FD62FD61DC219B846AE96A2C63AF63E7
:1050100011746E632C63895A0452817AC2CBE2FC0C
:1050200062FD82FDC2FDC2FDE4FD24FD62CA1CE7F3
:10503000FFFFFFFFFFFFFFFFFFFFFFFFFFFFFFFF80
:10504000FFFFFFFFB1CC81D2C0F3C1FC02FD02FD26
:10505000E2FCC2FCC2FC81FC80FBC0C9A48135AD6E
:1050600059CE719C218100DAA1FB82FCA2FC82FC5A
:10507000A2FC02FD22FDE2FC00FC60DA90CCFFFF06
:10508000FFFFFFFFFFFFFFFFFFFFFFFFFFFFFFFF30
:10509000FFFFFFFFFFFF59DE0DC406CBE4D203DBA9
:1050A00003DBE3DAC3D2A4C209B3D2BC9EF7FFFF8D
:1050B000FFFFFFFFFBE60EB4A6BA83D2E3E202EBEA
:1050C00022EB22E303DBE4D26AC3B6D5FFFFFFFF86
:1050D000FFFFFFFFFFFF00000000000000000000D6
:1050E0000000000004040404040400040000001490
:1050F0000A0A0000000000000000000014143F1421
:105100000A3F0A0A000000041E1505060C14150FBC
:105110000400000012150D0A142C2A1200000000D1
:10512000040A0A1E151509360000000202010000DB
:1051300000000000000000201008080808080810FF
:105140002000000204080808080808040200000003
:105150000004150E0E150400000000000404041FD6
:105160000404040000000000000000000000000231
:10517000020100000000001F00000000000000000D
:1051800000000000000000020000001008080804F1
:1051900004020202010000000E1111111111110E82
:1051A00000000000040604040404040E00000000D3
:1051B0000E1111080402011F000000000E11100C56
:1051C0001010110E00000000080C0A0A091E081831
:1051D000000000001F01010F1010110E0000000060
:1051E0000E09010F1111110E000000001F09080423
:1051F00004040404000000000E11110E1111110E20
:10520000000000000E1111111E10120E000000000F
:105210000000040000000004000000000000000482
:1052200000000004040000201008040204081020FC
:105230000000000000001F00001F0000000000022E
:105240000408102010080402000000000E111108CC
:1052500004040004000000000E111915151D011EA4
:105260000000000004040C0A0A1E123300000000B3
:105270000F12120E1212120F000000001E11010177
:105280000101110E000000000F1212121212120F73
:10529000000000001F120A0E0A02121F0000000088
:1052A0001F120A0E0A020207000000001C12010170
:1052B0003911120C000000003312121E12121233A8
:1052C000000000001F0404040404041F0000000088
:1052D0003E080808080808090700000037120A06F7
:1052E0000A0A123700000000070202020202223FEF
:1052F000000000001B1B1B1B1515151500000000EE
:105300003B1216161A1A1217000000000E11111186
:105310001111110E000000000F12120E02020207FE
:10532000000000000E1111111117190E18000000D5
:105330000F12120E0A121237000000001E11010691
:105340000810110F000000001F1504040404040ECF
:1053500000000000331212121212120C00000000A2
:105360003312120A0A0C0404000000001515150E71
:105370000A0A0A0A000000001B0A0A04040A0A1B9F
:10538000000000001B0A0A040404040E00000000D0
:105390001F0908040402121F0000001C0404040476
:1053A000040404041C00000202020404080808109B
:1053B0000000000E08080808080808080E0000048D
:1053C0000A000000000000000000000000000000D3
:1053D00000000000003F000400000000000000008A
:1053E000000000000000000C121C123C0000000035
:1053F0000302020E1212120E000000000000001C38
:105400001202021C000000001810101C1212123CA4
:10541000000000000000000C121E021C0000000032
:105420003804041E0404041E000000000000003CB8
:10543000120C021E221C00000302020E121212376E
:1054400000000000040000060404040E0000000038
:105450000800000C08080808080700000302023AC8
:105460000A0E123700000000070404040404041F9D
:10547000000000000000000F1515151500000000C9
:105480000000000F12121237000000000000000C94
:105490001212120C000000000000000F1212120E77
:1054A000020700000000001C1212121C103800003D
:1054B0000000001B06020207000000000000001EA2
:1054C000020C101E000000000004040E0404041866
:1054D000000000000000001B1212123C000000003F
:1054E00000000037120A0C04000000000000001544
:1054F000150E0A0A000000000000001B0A040A1B27
:105500000000000000000037120A0C040403000031
:105510000000001E0804041E00000018080808040B
:1055200008080808180008080808080808080808F3
:105530000808000604040408040404040600022504
:105540001800000000000000000000000000000043
:105550000000000000000000000000000008080833
:105560000808080800001818000000486C24120001
:1055700000000000000000000000000000242424BF
:105580007F1212127F12121200000000081C2A2A39
:105590000A0C1828282A2A1C0808000000222515B1
:1055A00015152A585454542200000000000C121201
:1055B000120A76252911916E0000000606040300E8
:1055C0000000000000000000000000402010100853
:1055D00008080808081010204000000204080810FD
:1055E0001010101010080804020000000000080845
:1055F0006B1C1C6B0808000000000000000008087D
:1056000008087F08080808000000000000000000EB
:105610000000000000000606040300000000000077
:105620000000FE000000000000000000000000007C
:10563000000000000000060600000000804040203E
:105640002010100808040402020000000018244280
:1056500042424242424224180000000000080E0864
:10566000080808080808083E00000000003C424204
:10567000422020100804427E00000000003C42420C
:10568000201820404042221C00000000002030284A
:10569000242422227E20207800000000007E0202C6
:1056A000021A26404042221C00000000003824025A
:1056B000021A26424242241800000000007E2222E4
:1056C000101008080808080800000000003C4242CA
:1056D000422418244242423C0000000000182442A8
:1056E000424264584040241C0000000000000000BA
:1056F000181800000000181800000000000000004A
:10570000000800000000000808040000004020100D
:1057100008040204081020400000000000000000FF
:105720007F0000007F00000000000000000204086D
:10573000102040201008040200000000003C4242FB
:10574000464020101000181800000000001C225ACB
:10575000555555552D42221C000000000008081820
:105760001414243C224242E700000000001F2222C1
:10577000221E22424242221F00000000007C4242C0
:10578000010101010142221C00000000001F224211
:10579000424242424242221F00000000003F4212A9
:1057A000121E12120242423F00000000003F42124D
:1057B000121E12120202020700000000003C222208
:1057C000010101712122221C0000000000E7424279
:1057D00042427E42424242E700000000003E08088A
:1057E000080808080808083E00000000007C1010A7
:1057F0001010101010101010110F0000007722125E
:105800000A0E0A121222227700000000000702028C
:10581000020202020202427F0000000000773636D8
:1058200036362A2A2A2A2A6B0000000000E3464660
:105830004A4A52525262624700000000001C224154
:10584000414141414141221C00000000003F4242D1
:1058500042423E020202020700000000001C2241F8
:10586000414141414D53321C60000000003F424223
:10587000423E1212222242C700000000007C424237
:10588000020418204042423E00000000007F490808
:10589000080808080808081C0000000000E7424249
:1058A000424242424242423C0000000000E7424283
:1058B000222424141418080800000000006B494931
:1058C00049495555362222220000000000E74224B3
:1058D00024181818242442E7000000000077222230
:1058E000141408080808081C00000000007E21208D
:1058F000101008040442423F00000078080808081D
:1059000008080808080808087800000002020404D3
:1059100008080810102020204040001E1010101011
:1059200010101010101010101E000038440000005D
:105930000000000000000000000000000000000067
:10594000000000000000000000FF0006080000004A
:105950000000000000000000000000000000000047
:10596000003C4278444242FC000000000003020276
:10597000021A26424242261A0000000000000000DF
:105980000038440202024438000000000060404039
:1059900040784442424264D8000000000000000009
:1059A000003C427E0202423C0000000000F08808F9
:1059B000087E08080808083E0000000000000000FB
:1059C000007C22221C023C42423C000000030202F6
:1059D000023A4642424242E700000000000C0C003E
:1059E000000E08080808083E0000000000303000E3
:1059F0000038202020202020221E00000003020268
:105A00000272120A1612227700000000000E080827
:105A1000080808080808083E000000000000000010
:105A2000007F9292929292B7000000000000000066
:105A3000003B4642424242E70000000000000000F6
:105A4000003C42424242423C000000000000000094
:105A5000001B26424242221E0207000000000000F6
:105A6000007844424242447840E0000000000000D8
:105A700000774C040404041F000000000000000034
:105A8000007C42023C40423E000000000000000852
:105A9000083E080808080830000000000000000068
:105AA00000634242424262DC00000000000000004D
:105AB00000E7422424140808000000000000000051
:105AC00000EB49495555222200000000000000006B
:105AD000007624181818246E000000000000000052
